:020000040000fa
:080000000013040000000000e1
:020000040000fa
:1000080002100000061000000a1000000e10000088
:1000180012100000161000001a1000001e10000038
:1000280022100000261000002a1000002e100000e8
:1000380032100000361000003a1000003e10000098
:1000480042100000461000004a1000004e10000048
:1000580052100000561000005a1000005e100000f8
:1000680062100000661000006a1000006e100000a8
:1000780072100000761000007a1000007e10000058
:1000880082100000861000008a1000008e10000008
:1000980092100000961000009a1000009e100000b8
:1000a800a2100000a6100000aa100000ae10000068
:1000b800b2100000b6100000ba100000be10000018
:1000c800c2100000c6100000ca100000ce100000c8
:1000d800d2100000d6100000da100000de10000078
:1000e800e2100000e6100000ea100000ee10000028
:1000f800f2100000f6100000fa100000fe100000d8
:1001080002110000061100000a1100000e11000083
:1001180012110000161100001a1100001e11000033
:1001280022110000261100002a1100002e110000e3
:1001380032110000361100003a1100003e11000093
:1001480042110000461100004a1100004e11000043
:1001580052110000561100005a1100005e110000f3
:1001680062110000661100006a1100006e110000a3
:1001780072110000761100007a1100007e11000053
:1001880082110000861100008a1100008e11000003
:1001980092110000961100009a1100009e110000b3
:1001a800a2110000a6110000aa110000ae11000063
:1001b800b2110000b6110000ba110000be11000013
:1001c800c2110000c6110000ca110000ce110000c3
:1001d800d2110000d6110000da110000de11000073
:1001e800e2110000e6110000ea110000ee11000023
:1001f800f2110000f6110000fa110000fe110000d3
:1002080002120000061200000a1200000e1200007e
:1002180012120000161200001a1200001e1200002e
:1002280022120000261200002a1200002e120000de
:1002380032120000361200003a1200003e1200008e
:1002480042120000461200004a1200004e1200003e
:1002580052120000561200005a1200005e120000ee
:020000040000fa
:10200000020000002214040000000000221404005a
:10201000000000002214040000000000221404004c
:10202000000000002214040000000000221404003c
:10203000000000002214040000000000221404002c
:10204000000000002214040000000000221404001c
:102050000000000022140400000000009e14040090
:1020600000000000221404000000000022140400fc
:1020700000000000221404000000000022140400ec
:1020800000000000221404000000000022140400dc
:102090000000000022140400000000007c14040072
:1020a000000000005014040000000000221404008e
:1020b00000000000221404000000000022140400ac
:1020c000000000002214040000000000221404009c
:1020d000000000002214040000000000221404008c
:1020e000000000002214040000000000221404007c
:1020f000000000002214040000000000221404006c
:10210000000000002214040000000000221404005b
:10211000000000002214040000000000221404004b
:10212000000000002214040000000000221404003b
:10213000000000002214040000000000221404002b
:10214000000000002214040000000000221404001b
:10215000000000002214040000000000221404000b
:1021600000000000221404000000000022140400fb
:1021700000000000221404000000000022140400eb
:1021800000000000221404000000000022140400db
:1021900000000000221404000000000022140400cb
:1021a00000000000221404000000000022140400bb
:1021b00000000000221404000000000022140400ab
:1021c000000000002214040000000000221404009b
:1021d000000000002214040000000000221404008b
:1021e000000000002214040000000000221404007b
:1021f000000000002214040000000000221404006b
:10220000000000002214040000000000221404005a
:10221000000000002214040000000000221404004a
:10222000000000002214040000000000221404003a
:10223000000000002214040000000000221404002a
:10224000000000002214040000000000221404001a
:10225000000000002214040000000000221404000a
:1022600000000000221404000000000022140400fa
:1022700000000000221404000000000022140400ea
:1022800000000000221404000000000022140400da
:1022900000000000221404000000000022140400ca
:1022a00000000000221404000000000022140400ba
:1022b00000000000221404000000000022140400aa
:1022c000000000002214040000000000221404009a
:1022d000000000002214040000000000221404008a
:1022e000000000002214040000000000221404007a
:1022f000000000002214040000000000221404006a
:102300000000000022140400000000002214040059
:102310000000000022140400000000002214040049
:102320000000000022140400000000002214040039
:102330000000000022140400000000002214040029
:102340000000000022140400000000002214040019
:102350000000000022140400000000002214040009
:1023600000000000221404000000000022140400f9
:1023700000000000221404000000000022140400e9
:1023800000000000221404000000000022140400d9
:1023900000000000221404000000000022140400c9
:1023a00000000000221404000000000022140400b9
:1023b00000000000221404000000000022140400a9
:1023c0000000000022140400000000002214040099
:1023d0000000000022140400000000002214040089
:1023e0000000000022140400000000002214040079
:1023f0000000000022140400000000002214040069
:102400000000000022140400000000002214040058
:102410000000000022140400000000002214040048
:102420000000000022140400000000002214040038
:102430000000000022140400000000002214040028
:102440000000000022140400000000002214040018
:102450000000000022140400000000002214040008
:1024600000000000221404000000000022140400f8
:1024700000000000221404000000000022140400e8
:1024800000000000221404000000000022140400d8
:1024900000000000221404000000000022140400c8
:1024a00000000000221404000000000022140400b8
:1024b00000000000221404000000000022140400a8
:0424c0000000000018
:020000040000fa
:10260000afd421000eff27000e018800000000005b
:10261000000020000000e000020032000001200065
:102620002002880014000700d70007000000e00027
:1026300003003a00e0ab2500010020000200370053
:102640000000200001002000810f70000100320016
:102650000f000700000020000000e0000200320030
:102660000000020000000000aa4a02000000000072
:102670000040da000000fe00209f20000000e00083
:1026800002003200002020009001880000000600b7
:10269000a1028800800478000000eb001f003700d2
:1026a000e284440054a0b4009905ba00e2844400d6
:1026b00054a0b4009906ba00e284440054a0b400c7
:1026c0000006eb00476fde00fd07b200ae01880098
:1026d000636ce10003003a000ad801000000eb003f
:1026e0000e003700606ce10008003a00004deb007e
:1026f0000a05e800020039003420ec000af0a000ce
:102700008b05e900f9ff3e00040037006168e10035
:10271000010032000086eb000b00070019c7ba0069
:102720000e04e0001905ba0003003a000a00e000b8
:10273000dbff3a0000000600fe07b200ae02880090
:102740008a047800f5ff37000cd0a300e20f4d009b
:102750001c00390089027800354dba000a05e800ee
:10276000020039003420ec000af0a0008b05e900db
:102770000f003200254dba000a05e80002003900ba
:102780003420ec000af0a0008b05e90008003200bc
:102790000c00e0000600320015cdba000a05e80082
:1027a000020039003420ec000af0a0008b05e9009b
:1027b0008984e80054a0b4000b00e000e2ff3a0076
:1027c000000006009902ba00055d78008b05e9005b
:1027d000f7ff3200c82ade00055d78008b05e900ae
:1027e000f3ff32000c00e000f1ff320019ddba0007
:1027f000eeff3700dc1e040000000000d81e0400bd
:1028000000000000343e040000000000a237040075
:1028100000000000c83e0400000000007238040000
:1028200000000000023a040000000000b03c040078
:1028300000000000923b040000000000e01e0400c5
:10284000000000003600f800809fbe00829fbe009e
:10285000849fbe00869fbe003200f8003400f8005e
:1028600010002000a00188000020200000d0fe0001
:10287000c808f8007a10f900604e2900511e0700c0
:102880003400f9003200f9004f03be004f02be00d1
:102890004f01be004f00be003600f90000400600a8
:1028a000809fbe000000210090009000200090005a
:1028b000808f500002003a002188a9000c003700e8
:1028c0000430ec00000420000410e30001003a0092
:1028d0000430ef000188a90000002100900078007a
:1028e00020009000008040001080fb002011880034
:1028f0004f00be0000400600809fbe00821f78008f
:102900000168a900311180000a30ec0000042000a9
:102910000a10e30001003a000a30ef0080002100b5
:10292000100178001000900000004100014878007c
:102930004f0178004f00be00004006003600f8004e
:10294000809fbe00829fbe00849fbe00869fbe0007
:10295000608380007183800061004000e080480057
:1029600060838800718388000068a900341a07001a
:102970004f03be004f02be004f01be004f00be001d
:102980003600f90000400600000005006022b80093
:10299000060220000000d0008180d2000482d20014
:1029a0008582d2000000a0000202520083825a00f9
:1029b000030031000202420083824a000000a100ad
:0c29c0000603e900f3ff3a0000000600e7
:020000040000fa
:1029cc00556e0000686100006e6400006c650000cc
:1029dc0064200000696e00007465000072720000d3
:1029ec0075700000742c000020000000647300005f
:1029fc0050490000433300003345000050350000bf
:102a0c003132000047500000383000003600000022
:102a1c00756e00006b6e00006f7700006e0000009a
:102a2c00423100000044000065760000696300003c
:102a3c006520000049440000203d000020000000fb
:102a4c0020280000002900002c20000072650000e6
:102a5c0076690000736900006f6e000020000000b2
:102a6c00290a0000000a00000a2a00002a2a000095
:102a7c002a2a00002a2a00002a2a00002a2a0000fa
:102a8c002a2a00002a2a00002a2a00002a2a0000ea
:102a9c002a2a00002a2a00002a2a00002a2a0000da
:102aac002a2a00002a2a00002a2a00002a2a0000ca
:102abc002a2a00002a2a00002a2a00002a2a0000ba
:102acc002a2a00002a2a00002a2a00002a2a0000aa
:102adc002a2a00002a0a00002a2000005741000080
:102aec00524e0000494e0000472000002d200000ef
:102afc00746800006973000020700000726f0000a1
:102b0c0067720000616d00002077000061730000a7
:102b1c00206300006f6d0000706900006c650000a0
:102b2c0064200000666f00007220000074680000d2
:102b3c0065200000777200006f6e000067200000b7
:102b4c00202a00000a2a00002063000068690000a7
:102b5c00702e0000205400006869000073200000f3
:102b6c00707200006f670000726100006d20000041
:102b7c006d61000079200000707200006f6400002d
:102b8c007563000065200000756e0000657800001c
:102b9c007065000063740000656400002062000032
:102bac0065680000766900006f720000212000004b
:102bbc002a0a00002a200000456400006974000005
:102bcc00207400006865000020680000656100004a
:102bdc006465000072200000666900006c650000ee
:102bec0073200000746f000020700000726f0000f2
:102bfc0070650000726c00007920000064650000b4
:102c0c00666900006e6500002074000068690000b1
:102c1c00732000006368000069700000202a000027
:102c2c000a2a0000206100006e640000207400007d
:102c3c006f200000696e0000737500007265000063
:102c4c00206300006f720000726500006374000066
:102c5c00206f000070650000726100007469000054
:102c6c006f6e00002e2000002020000020200000ad
:102c7c002020000020200000202000002020000048
:102c8c002020000020200000202000002a0a000044
:102c9c002a2000002020000020200000202000001e
:102cac002020000020200000202000002020000018
:102cbc002020000020200000202000002020000008
:102ccc0020200000202000002020000020200000f8
:102cdc0020200000202000002020000020200000e8
:102cec0020200000202000002020000020200000d8
:102cfc002020000020200000202a00000a2a0000ca
:102d0c00204e00004f540000453a000020490000be
:102d1c0066200000746800006973000020770000d2
:102d2c0061730000206300006f6d0000706900008b
:102d3c006c65000064200000666f000072200000cb
:102d4c007468000065200000636f00007272000060
:102d5c006563000074200000636800006970000067
:102d6c002c200000202000002a0a00002a2000004d
:102d7c00616e0000642000006f6e00006c79000032
:102d8c00206f000063630000757200007320000068
:102d9c0061740000207000006f7700006572000005
:102dac002d6f00006e200000286e00006f74000074
:102dbc002064000075720000696e0000672000003e
:102dcc00612000004d4300004c5200002020000008
:102ddc0020200000202a00000a2a00002072000097
:102dec006573000065740000292c0000207600003b
:102dfc0065720000696600007920000074680000ac
:102e0c006174000020410000564400004420000082
:102e1c00616e000064200000415600005353000016
:102e2c002061000072650000206300006f6e0000de
:102e3c006e65000063740000656400002e200000c5
:102e4c00202000002a0a00002a2000004f6e0000fb
:102e5c002074000068650000205000004943000009
:102e6c00323400004833000032470000503200007a
:102e7c00303200002c2000006e6f00007420000027
:102e8c00636f00006e6e00006563000074690000e3
:102e9c006e670000204100005644000044200000f2
:102eac002020000020200000202000002020000016
:102ebc00202a00000a2a000020700000726f000017
:102ecc0064750000636500007320000074680000e6
:102edc0069730000206d00006573000073610000d1
:102eec0067650000206f00006e6c00007920000008
:102efc0061740000207000006f77000065720000a4
:102f0c002d750000702e00002020000020200000f5
:102f1c0020200000202000002020000020200000a5
:102f2c002a0a00002a2a00002a2a00002a2a000065
:102f3c002a2a00002a2a00002a2a00002a2a000035
:102f4c002a2a00002a2a00002a2a00002a2a000025
:102f5c002a2a00002a2a00002a2a00002a2a000015
:102f6c002a2a00002a2a00002a2a00002a2a000005
:102f7c002a2a00002a2a00002a2a00002a2a0000f5
:102f8c002a2a00002a2a00002a2a00002a2a0000e5
:102f9c000a0000004661000073740000205200001b
:102fac00432000004f730000630a0000004600003d
:102fbc00617300007420000052430000204f000099
:102fcc007363000020770000697400006820000023
:102fdc00504c00004c0a00000050000072690000c8
:102fec006d61000072790000204f000073630000d7
:102ffc0020280000585400002c20000048530000ea
:10300c002c20000045430000290a0000005000005d
:10301c00726900006d61000072790000204f0000a1
:10302c007363000020280000585400002c2000007e
:10303c00485300002c2000004543000029200000cc
:10304c007769000074680000205000004c4c0000b0
:10305c000a00000053650000636f00006e640000fe
:10306c0061720000792000004f730000630a0000b9
:10307c00004c00006f770000205000006f770000bc
:10308c006572000020520000432000004f730000c6
:10309c00630a000000460000617300007420000009
:1030ac0052430000204f0000736300002f310000da
:1030bc00360a000000460000617300007420000016
:1030cc0052430000204f0000736300002f4e00009d
:1030dc000a000000556e00006b6e00006f77000058
:1030ec006e2000006f730000636900006c6c0000c0
:1030fc00617400006f720000207400007970000091
:10310c00652e0000000a000044650000766900008e
:10311c0063650000206800006173000020620000fd
:10312c00656500006e200000696e000020730000d1
:10313c006c65000065700000206d00006f6400007d
:10314c00650a0000000a0000446500007669000072
:10315c0063650000206800006173000020620000bd
:10316c00656500006e200000696e0000206900009b
:10317c00646c0000652000006d6f00006465000049
:10318c000a0000000a52000065730000657400001c
:10319c002063000061750000736500003a20000098
:1031ac00005000006f770000657200002d6f00006a
:1031bc006e2e00000a000000536f000066740000c1
:1031cc0077610000726500002052000065730000fa
:1031dc00657400002e0a00000057000061740000a6
:1031ec0063680000646f00006720000054690000f1
:1031fc006d6500006f750000743a0000200000003f
:10320c000a0000004d4300004c52000020610000f9
:10321c007373000065720000746900006f6e00002b
:10322c002e0a000000420000726f0000776e000052
:10323c002d6f0000757400002e0a00000054000071
:10324c007261000070200000436f00006e66000089
:10325c006c690000637400002e0a00000049000035
:10326c006c6c000065670000616c0000204300007e
:10327c006f6e000064690000746900006f6e0000de
:10328c002e0a0000004300006f6e0000666900000b
:10329c006775000072610000746900006f6e0000b9
:1032ac00204d0000697300006d6100007463000024
:1032bc00682e00000a000000556e00006b6e0000c6
:1032cc006f7700006e2000007265000073650000cf
:1032dc00742e00000a00000045720000726f00009e
:1032ec0072200000747200006170000070650000b4
:1032fc00643a00002000000050720000696f00006a
:10330c0072690000747900003a200000002c000063
:10331c002056000065630000746f000072200000ee
:10332c006e7500006d620000657200003a200000ae
:10333c00000a00000a0000000a5700006861000043
:10334c0074200000776f0000756c00006420000092
:10335c00796f0000752000006c6900006b6500003f
:10336c00207400006f20000063680000616e000094
:10337c00676500003f0a0000006100003a20000071
:10338c00537700006974000063680000206400003b
:10339c006f750000626c0000652000007072000008
:1033ac0065730000732000007065000072690000f6
:1033bc006f6400000a000000623a00002052000016
:1033cc0050470000207300006c6f00007720000055
:1033dc006e6f000074690000666900006361000094
:1033ec00746900006f6e00002074000068720000a9
:1033fc0065730000686f00006c6400000a00000038
:10340c00633a00002052000050470000206d00007d
:10341c0065640000697500006d2000006e6f00008f
:10342c007469000066690000636100007469000043
:10343c006f6e00002074000068720000657300005d
:10344c00686f00006c6400000a000000643a000021
:10345c0020520000504700002066000061730000fd
:10346c00742000006e6f0000746900006669000033
:10347c0063610000746900006f6e0000207400002e
:10348c006872000065730000686f00006c640000d7
:10349c000a0a00000055000073650000207000004f
:1034ac006c750000732000006f720000206d00002e
:1034bc00696e000075730000206b000065790000d8
:1034cc0073200000746f000020630000686100002e
:1034dc006e670000652e00000a00000050720000ac
:1034ec00657300007320000073200000746f0000ef
:1034fc00206c0000656100007665000020740000ff
:10350c006869000073200000667500006e6300009f
:10351c00746900006f6e00002e0a0000000a0000a3
:10352c004375000072720000656e0000742000008c
:10353c00566100006c750000652000006973000086
:10354c003a200000000a0000000a00004e6f000044
:10355c007420000061200000766100006c6900009e
:10356c0064200000656e000074720000792e00006b
:10357c000a0000000a43000075720000726500002a
:10358c006e740000205300006c6f00007720000068
:10359c00566100006c750000652000006973000026
:1035ac003a200000000a0000536c00006f77000006
:1035bc00205400006872000065730000686f000002
:1035cc006c64000020630000616e00002774000032
:1035dc0020620000652000006c6f00007765000021
:1035ec007220000074680000616e00002030000042
:1035fc002e0a0000200000000a5300006c6f00002f
:10360c007720000053700000656500006420000006
:10361c00636100006e2700007420000062650000ea
:10362c002067000072650000617400006572000084
:10363c0020740000686100006e2000004d650000e1
:10364c00642000005370000065650000642e0000cb
:10365c000a200000000a000043750000727200008e
:10366c00656e0000742000004d6500006469000068
:10367c00756d000020560000616c0000756500003f
:10368c0020690000733a0000200000000a4d000081
:10369c006564000020530000706500006564000044
:1036ac0020630000616e000027740000206200009f
:1036bc00652000006c6f0000776500007220000030
:1036cc0074680000616e0000205300006c6f0000f5
:1036dc00772000005370000065650000642e000028
:1036ec000a200000000a00004d6500006420000064
:1036fc0053700000656500006420000063610000e9
:10370c006e27000074200000626500002067000036
:10371c007265000061740000657200002074000086
:10372c00686100006e2000004661000073740000a8
:10373c002053000070650000656400002e0a000034
:10374c00200000000a430000757200007265000042
:10375c006e740000204600006173000074200000ad
:10376c00566100006c750000652000006973000054
:10377c003a200000000a000046610000737400004b
:10378c002053000070650000656400002063000099
:10379c00616e0000277400002062000065200000ac
:1037ac006c6f0000776500007220000074680000e8
:1037bc00616e0000204d0000656400002053000085
:1037cc0070650000656400002e0a000020000000f7
:1037dc000a4d000046610000737400002053000085
:1037ec00706500006564000020630000616e0000dd
:1037fc002774000020620000652000006772000042
:10380c00656100007465000072200000746800009f
:10381c00616e000020310000303000002e0a0000e4
:10382c002000000053570000312000006973000095
:10383c002070000072650000737300006564000066
:10384c000a0000005357000031200000697300008b
:10385c0020720000656c000065610000736500005b
:10386c00640a000000530000573200002069000079
:10387c007320000070720000657300007365000017
:10388c00640a000000530000573200002069000059
:10389c0073200000726500006c650000617300000d
:1038ac00656400000a00000053570000312000003e
:1038bc0069730000206400006f750000626c0000ea
:1038cc0065200000707200006573000073650000d5
:1038dc00640a000000530000573300002069000008
:1038ec0073200000707200006573000073650000a7
:1038fc00640a0000005300005733000020690000e8
:10390c0073200000726500006c650000617300009c
:10391c00656400000a0000000a620000756900007e
:10392c006c6400005c650000736f0000735f000046
:10393c00656d000062650000646400006564000051
:10394c0046310000345f0000333300004550000066
:10395c00353100003247000050380000303600008e
:10396c005c6300006861000070310000345c000092
:10397c00743300005f610000707000002e63000063
:10398c002c20000062750000696c0000742000009f
:10399c006f6e0000204600006562000020310000c0
:1039ac00392000003230000032310000206100006c
:1039bc0074200000313000003a320000353a00002b
:1039cc00303800000a00000055410000525400003d
:1039dc0031200000706100007269000074790000f1
:1039ec0020650000727200006f7200000a00000077
:1039fc005541000052540000312000006672000056
:103a0c00616d0000696e00006720000065720000a7
:103a1c00726f0000720a0000005500004152000055
:103a2c0054310000206f00007665000072720000b7
:103a3c00756e000020650000727200006f7200004d
:103a4c000a000000554100005254000032200000d2
:103a5c00706100007269000074790000206500003c
:103a6c00727200006f7200000a00000055410000e5
:103a7c00525400003220000066720000616d00009c
:103a8c00696e00006720000065720000726f000014
:103a9c00720a000000550000415200005432000030
:103aac00206f00007665000072720000756e0000d9
:103abc0020650000727200006f7200000a000000a6
:103acc00554100005254000033200000706100008a
:103adc0072690000747900002065000072720000a9
:103aec006f7200000a0000005541000052540000a3
:103afc003320000066720000616d0000696e0000ea
:103b0c006720000065720000726f0000720a0000ee
:103b1c00005500004152000054330000206f00009b
:103b2c007665000072720000756e00002065000062
:103b3c00727200006f7200000a0000005541000014
:103b4c0052540000342000007061000072690000c3
:103b5c007479000020650000727200006f72000022
:103b6c000a000000554100005254000034200000af
:103b7c0066720000616d0000696e00006720000035
:103b8c0065720000726f0000720a000000550000a0
:103b9c004152000054340000206f00007665000094
:103bac0072720000756e00002065000072720000d9
:103bbc006f7200000a000000307800000045000021
:103bcc00727200006f720000206900006e2000000d
:103bdc0062750000696c0000645c00006573000095
:103bec006f7300005f6500006d620000656400008b
:103bfc006465000064460000313400005f3300004f
:103c0c0033450000503500003132000047500000b1
:103c1c0038300000365c00006c690000625c00000b
:103c2c0073720000635c0000706900006332000076
:103c3c00345f00007365000072690000616c000065
:103c4c002e630000206c0000696e000065200000ef
:103c5c0032390000363a0000204900006e76000030
:103c6c00616c0000696400002055000041520000a6
:103c7c005400000045720000726f000072200000ba
:103c8c00696e000020620000756900006c64000021
:103c9c005c650000736f0000735f0000656d0000d1
:103cac006265000064640000656400004631000039
:103cbc00345f000033330000455000003531000004
:103ccc003247000050380000303600005c6c0000b9
:103cdc00696200005c730000726300005c7000009d
:103cec0069630000323400005f73000065720000ed
:103cfc00696100006c2e0000632000006c690000fc
:103d0c006e65000020330000333500003a200000bf
:103d1c00496e0000766100006c69000064200000b0
:103d2c005541000052540000000500000302000041
:103d3c000100000050c3000030750000204e000050
:103d4c001027000088130000b80b0000d0070000fb
:103d5c00e8030000f40100002c010000c800000082
:103d6c0064000000320000001e000000140000007f
:103d7c000a00000005000000030000000200000023
:103d8c000100000005030000020100000503000013
:103d9c0002010000321e0000140a0000050300009e
:043dac000201000010
:020000040000fa
:103db00080e480000000060090e48000000006001f
:103dc000881f780000047800284090000074a0004c
:103dd00020449800180078008000eb00a21c20000e
:103de000820f5000e08f5800500c3e00000601008a
:103df000ca0137004d0c37004c0c37004b0c370014
:103e00004a0c3700490c3700480c3700470c370084
:103e1000460c3700450c3700440c3700430c370084
:103e2000420c3700410c3700400c37003f0c370084
:103e30003e0c37003d0c37003c0c37003b0c370084
:103e40003a0c3700390c3700380c3700370c370084
:103e5000360c3700350c3700340c3700330c370084
:103e6000320c3700310c3700300c37002f0c370084
:103e70002e0c37002d0c37002c0c37002b0c370084
:103e80002a0c3700290c3700280c3700270c370084
:103e9000260c3700250c3700240c3700230c370084
:103ea000220c3700210c3700200c37001f0c370084
:103eb0001e0c37001d0c37001c0c37001b0c370084
:103ec0001a0c3700190c3700180c3700170c370084
:103ed000160c3700150c3700140c3700130c370084
:103ee000120c3700110c3700100c37000f0c370084
:103ef0000e0c37000d0c37000c0c37000b0c370084
:103f00000a0c3700090c3700080c3700070c370083
:103f1000060c3700050c3700040c3700030c370083
:103f2000020c3700010c3700000c3700ff0b370084
:103f3000fe0b3700fd0b3700fc0b3700fb0b370087
:103f4000fa0b3700f90b3700f80b3700f70b370087
:103f5000f60b3700f50b3700f40b3700f30b370087
:103f6000f20b3700f10b3700f00b3700ef0b370087
:103f7000ee0b3700ed0b3700ec0b3700eb0b370087
:103f8000ea0b3700e90b3700e80b3700e70b370087
:103f9000e60b3700e50b3700e40b3700e30b370087
:103fa000e20b3700e10b3700e00b3700df0b370087
:103fb000de0b3700dd0b3700dc0b3700db0b370087
:103fc000da0b3700d90b3700d80b3700d70b370087
:103fd000d60b3700d50b3700d40b37005301370011
:103fe0006b013700d10b3700d00b3700820137004f
:103ff0009a013700cd0b3700cc0b3700b1013700e9
:10400000c9013700c90b3700c80b3700e001370082
:10401000f8013700c50b3700c40b37000f0237001b
:1040200027023700c10b3700c00b3700bf0b37002a
:10403000be0b3700bd0b3700bc0b3700bb0b370086
:10404000ba0b3700b90b37003a023700520237007b
:10405000b60b3700b50b3700b40b3700b30b370086
:10406000b20b3700b10b3700b00b3700af0b370086
:10407000ae0b3700ad0b3700ac0b3700ab0b370086
:10408000740237008c023700a80b3700a70b3700eb
:10409000a3023700bb023700a40b3700a30b370085
:1040a000a20b3700d1023700e90237009f0b37001f
:1040b0009e0b370000033700180337009b0b3700b7
:1040c0009a0b37003003370048033700970b37004f
:1040d000960b3700950b3700940b3700930b370086
:1040e000920b3700910b3700900b37008f0b370086
:1040f0008e0b37008d0b37008c0b37008b0b370086
:104100008a0b37006a03370082033700870b3700ba
:10411000860b3700850b3700840b37009a03370076
:10412000b2033700810b3700800b3700c90337001b
:10413000e10337007d0b37007c0b3700f8033700b5
:1041400010043700790b3700780b3700770b3700f6
:10415000760b3700750b3700740b3700730b370085
:10416000720b3700710b3700700b37006f0b370085
:104170006e0b37006d0b37002b04370043043700fc
:104180006a0b3700690b37005a0437007204370096
:10419000660b3700650b3700640b37008804370067
:1041a000a0043700610b3700600b3700b7043700fd
:1041b000cf0437005d0b37005c0b3700e704370096
:1041c000ff043700590b3700580b3700570b3700e7
:1041d000560b3700550b3700540b3700530b370085
:1041e000520b3700510b37001b05370033053700e2
:1041f0004e0b37004d0b37004c0b37004b0b370085
:104200004a0b3700490b3700480b3700470b370084
:10421000460b3700450b3700440b37004d05370080
:1042200065053700410b3700400b37003f0b370067
:104230003e0b37003d0b37003c0b37007e05370047
:1042400096053700390b3700380b3700370b37002e
:10425000360b3700ae053700c6053700330b370085
:10426000320b3700dd053700f50537002f0b37001f
:104270002e0b37000c063700240637002b0b3700b7
:104280002a0b3700290b3700280b3700270b370084
:10429000260b3700250b3700240b3700230b370084
:1042a000220b3700210b3700200b37001f0b370084
:1042b0003f063700570637001c0b37001b0b370033
:1042c0006e06370086063700180b3700170b3700cd
:1042d000160b37009c063700b4063700130b370067
:1042e000120b3700cb063700e30637000f0b370001
:1042f0000e0b3700fb063700130737000b0b370098
:104300000a0b3700090b3700080b3700070b370083
:10431000060b3700050b3700040b3700030b370083
:104320003007370048073700000b3700ff0a370017
:10433000fe0a3700fd0a3700fc0a3700fb0a370087
:10434000fa0a3700f90a3700f80a3700f70a370087
:10435000f60a3700620737007a073700f30a37009a
:10436000f20a3700f10a3700f00a3700ef0a370087
:10437000ee0a370093073700ab073700eb0a370028
:10438000ea0a3700e90a3700e80a3700c3073700ae
:10439000db073700e50a3700e40a3700f207370089
:1043a0000a083700e10a3700e00a37002108370021
:1043b00039083700dd0a3700dc0a3700db0a37002e
:1043c000da0a3700d90a3700d80a3700d70a370087
:1043d000d60a3700d50a3700d40a3700d30a370087
:1043e000d20a3700d10a3700540837006c0837006a
:1043f000ce0a3700cd0a3700830837009b08370004
:10440000ca0a3700c90a3700c80a3700b10837009e
:10441000c9083700c50a3700c40a3700e00837006a
:10442000f8083700c10a3700c00a37001009370002
:1044300028093700bd0a3700bc0a3700bb0a37001d
:10444000ba0a3700b90a3700b80a3700b70a370086
:10445000b60a3700b50a3700450937005d0937004d
:10446000b20a3700b10a3700b00a3700af0a370086
:10447000ae0a3700ad0a3700ac0a3700ab0a370086
:10448000aa0a3700a90a3700a80a370078093700b6
:1044900090093700a50a3700a40a3700a30a37009d
:1044a000a20a3700a10a3700a00a3700a90937007d
:1044b000c10937009d0a37009c0a37009b0a370064
:1044c0009a0a3700d9093700f1093700970a3700ef
:1044d000960a3700080a3700200a3700930a370087
:1044e000920a3700370a37004f0a37008f0a370021
:1044f0008e0a37008d0a37008c0a37008b0a370086
:104500008a0a3700890a3700880a3700870a370085
:10451000860a3700850a37006a0a37006650e200cb
:1045200002013a00b0072000000c780028409000fb
:104530000028a3000400320040c0b30020449800cb
:1045400030c0b3007d0a3700818180000128a300bc
:1045500003003a000004a100204498000200370044
:104560000004a00020449800284190000040eb0087
:104570000208a300710a3a000120a000818188008e
:10458000e0c221000008eb00c0072000000c78000a
:10459000284090000028a3000400320040c0b3006f
:1045a0002044980030c0b300640a3700219a2900e3
:1045b000e0c221002a110700e24f5000040036003b
:1045c000284090000004a100204498000300370018
:1045d000284090000004a00020449800a8409000cb
:1045e0000040eb000108a300540a3a003050a90033
:1045f000f0072000000c7800284090000028a3005d
:104600000400320040c0b3002044980030c0b30022
:104610004a0a3700818180000128a30003003a0084
:104620000004a10020449800020037000004a0000c
:1046300020449800284190000040eb000208a300ad
:104640003e0a3a000120a00081818800e0c22100da
:104650000008eb0000082000000c780028409000c3
:104660000028a3000400320040c0b300204498009a
:1046700030c0b300310a3700319c2900e0c221006c
:10468000f7100700e24f5000040036002840900069
:104690000004a10020449800030037002840900047
:1046a0000004a00020449800a84090000040eb00c7
:1046b0000108a300210a3a003050a9003008200068
:1046c000000c7800284090000028a300040032006d
:1046d00040c0b3002044980030c0b300170a370030
:1046e000818180000128a30003003a000004a1009a
:1046f00020449800020037000004a00020449800e5
:10470000284190000040eb000208a3000b0a3a0089
:104710000120a00081818800e0c221000008eb0098
:1047200040082000000c7800284090000028a300da
:104730000400320040c0b3002044980030c0b300f1
:10474000fe093700219e2900e0c22100c4100700a5
:10475000e24f500004003600284090000004a10001
:104760002044980003003700284090000004a00077
:1047700020449800a84090000040eb000108a300ee
:10478000ee093a003050a90070082000000c7800b3
:10479000284090000028a3000400320040c0b3006d
:1047a0002044980030c0b300e409370081818000c4
:1047b0000128a30003003a000004a100204498004f
:1047c000020037000004a000204498002841900017
:1047d0000040eb000208a300d8093a000120a00025
:1047e00081818800e0c221000008eb0080082000e1
:1047f000000c7800284090000028a300040032003c
:1048000040c0b3002044980030c0b300cb0937004b
:1048100061a02900e0c2210091100700e24f500082
:1048200004003600284090000004a10020449800b5
:1048300003003700284090000004a00020449800a6
:10484000a84090000040eb000108a300bb093a001b
:104850003050a900b0082000000c780028409000db
:104860000028a3000400320040c0b3002044980098
:1048700030c0b300b1093700818180000128a30056
:1048800003003a000004a100204498000200370011
:104890000004a00020449800284190000040eb0054
:1048a0000208a300a5093a000120a0008181880028
:1048b000e0c221000008eb00c0082000000c7800d6
:1048c000284090000028a3000400320040c0b3003c
:1048d0002044980030c0b30098093700c1a22900d5
:1048e000e0c221005e100700e24f500004003600d5
:1048f000284090000004a1002044980003003700e5
:10490000284090000004a00020449800a840900097
:104910000040eb000108a30088093a003050a900cc
:1049200010c0b30066f0b7005d09370060092000d1
:10493000000c7800284090000028a30004003200fa
:1049400040c0b3002044980030c0b3007b0937005a
:10495000818180000138a30003003a000004a10017
:1049600020449800020037000004a0002044980072
:10497000284190000040eb000208a3006f093a00b4
:104980000130a0008181880000c421000008eb00f4
:1049900070092000000c7800284090000028a30037
:1049a0000400320040c0b3002044980030c0b3007f
:1049b0006209370012c0b300b106210000c4210013
:1049c0009b0f0700e24f5000040036002840900083
:1049d0000004a10020449800030037002840900004
:1049e0000004a00020449800a84090000040eb0084
:1049f0000108a30051093a003070a9006bd0bf0034
:104a0000d1c6b300814f500003003200d1c4b300bf
:104a1000814f500004003a0072c7b300a306210082
:104a2000824978006670ef0011c6b300814f5000d4
:104a3000f2013a005c10f8006810f900e901370053
:104a4000a0c7b3006450e30066003a00400a2000ab
:104a5000000c7800284090000028a30004003200d9
:104a600040c0b3002044980030c0b3003309370081
:104a7000818180000128a30003003a000004a10006
:104a800020449800020037000004a0002044980051
:104a9000284190000040eb000208a30027093a00db
:104aa0000120a00081818800e0c221000008eb0005
:104ab000500a2000000c7800284090000028a30035
:104ac0000400320040c0b3002044980030c0b3005e
:104ad0001a09370011a52900e0c22100e00f0700e4
:104ae000e24f500004003600284090000004a1006e
:104af0002044980003003700284090000004a000e4
:104b000020449800a84090000040eb000108a3005a
:104b10000a093a003050a900800a2000000c7800f1
:104b2000284090000028a3000400320040c0b300d9
:104b30002044980030c0b300000937008181800014
:104b40000128a30003003a000004a10020449800bb
:104b5000020037000004a000204498002841900083
:104b60000040eb000208a300f4083a000120a00076
:104b700081818800e0c221000008eb00900a20003b
:104b8000000c7800284090000028a30004003200a8
:104b900040c0b3002044980030c0b300e70837009d
:104ba00041a72900e0c22100ad0f0700e24f5000ed
:104bb00004003600284090000004a1002044980022
:104bc00003003700284090000004a0002044980013
:104bd000a84090000040eb000108a300d7083a006d
:104be0003050a900d00a2000000c78002840900026
:104bf0000028a3000400320040c0b3002044980005
:104c000030c0b300cd083700818180000128a300a7
:104c100003003a000004a10020449800020037007d
:104c20000004a00020449800284190000040eb00c0
:104c30000208a300c1083a000120a0008181880079
:104c4000e0c221000008eb00e00a2000000c780020
:104c5000284090000028a3000400320040c0b300a8
:104c60002044980030c0b300b408370051a929008f
:104c7000e0c221007a0f0700e24f50000400360026
:104c8000284090000004a100204498000300370051
:104c9000284090000004a00020449800a840900004
:104ca0000040eb000108a300a4083a003050a9001e
:104cb000100b2000000c7800284090000028a30072
:104cc0000400320040c0b3002044980030c0b3005c
:104cd0009a083700818180000128a30003003a0070
:104ce0000004a10020449800020037000004a00046
:104cf00020449800284190000040eb000208a300e7
:104d00008e083a000120a00081818800e0c22100c5
:104d10000008eb00200b2000000c780028409000d9
:104d20000028a3000400320040c0b30020449800d3
:104d300030c0b30081083700428380008001eb005f
:104d4000e0c22100010e0700e24f500004003600cf
:104d5000284090000004a100204498000300370080
:104d6000284090000004a00020449800a840900033
:104d70000040eb000108a30070083a003050a90081
:104d8000500b2000000c7800284090000028a30061
:104d90000400320040c0b3002044980030c0b3008b
:104da00066083700818180000138a30003003a00c3
:104db0000004a10020449800020037000004a00075
:104dc00020449800284190000040eb000208a30016
:104dd0005a083a000130a0008181880000c42100f7
:104de0000008eb00600b2000000c780028409000c9
:104df0000028a3000400320040c0b3002044980003
:104e000030c0b3004d08370012c0b3004106210086
:104e100000c42100860e0700e24f50000400360057
:104e2000284090000004a1002044980003003700af
:104e3000284090000004a00020449800a840900062
:104e40000040eb000108a3003c083a003070a900c4
:104e500064d0bf00d1c2b300814f500005003a00ba
:104e6000408380006a00500040838800e082880010
:104e7000dc003700d1c3b300814f500005003a0079
:104e8000408380006a00400040838800e082880000
:104e9000d400370031c7b300814f500038003a00ca
:104ea000014078006af0b700500c2000000c780038
:104eb000284090000028a3000400320040c0b30046
:104ec0002044980030c0b3001c0837008181800066
:104ed0000128a30003003a000004a1002044980028
:104ee000020037000004a0002044980028419000f0
:104ef0000040eb000208a30010083a000120a000c7
:104f000081818800e0c221000008eb00600c2000d5
:104f1000000c7800284090000028a3000400320014
:104f200040c0b3002044980030c0b30003083700ed
:104f300091aa2900e0c22100c90e0700e24f5000eb
:104f400004003600284090000004a100204498008e
:104f500003003700284090000004a000204498007f
:104f6000a84090000040eb000108a300f3073a00be
:104f70003050a900a0c7b30064f0b7009900370013
:104f8000b00c2000000c7800284090000028a300fe
:104f90000400320040c0b3002044980030c0b30089
:104fa000e6073700818180000128a30003003a0052
:104fb0000004a10020449800020037000004a00073
:104fc00020449800284190000040eb000208a30014
:104fd000da073a000120a00081818800e0c22100a8
:104fe0000008eb00c00c2000000c78002840900066
:104ff0000028a3000400320040c0b3002044980001
:1050000030c0b300cd073700b1aa2900e0c22100ab
:10501000930e0700e24f5000040036002840900035
:105020000004a100204498000300370028409000ad
:105030000004a00020449800a84090000040eb002d
:105040000108a300bd073a003050a900f00c200071
:10505000000c7800284090000028a30004003200d3
:1050600040c0b3002044980030c0b300b3073700fd
:10507000818180000128a30003003a000004a10000
:1050800020449800020037000004a000204498004b
:10509000284190000040eb000208a300a7073a0057
:1050a0000120a00081818800e0c221000008eb00ff
:1050b000000d2000000c7800284090000028a3007c
:1050c0000400320040c0b3002044980030c0b30058
:1050d0009a07370011a52900e0c22100600e0700e1
:1050e000e24f500004003600284090000004a10068
:1050f0002044980003003700284090000004a000de
:1051000020449800a84090000040eb000108a30054
:105110008a073a003050a900300d2000000c7800ba
:10512000284090000028a3000400320040c0b300d3
:105130002044980030c0b300800737008181800090
:105140000128a30003003a000004a10020449800b5
:10515000020037000004a00020449800284190007d
:105160000040eb000208a30074073a000120a000f1
:1051700081818800e0c221000008eb00400d200082
:10518000000c7800284090000028a30004003200a2
:1051900040c0b3002044980030c0b3006707370018
:1051a00041a72900e0c221002d0e0700e24f500068
:1051b00004003600284090000004a100204498001c
:1051c00003003700284090000004a000204498000d
:1051d000a84090000040eb000108a30057073a00e8
:1051e0003050a90030c7b3006a50e30014fe3a0003
:1051f000644040006af0b7006670ef0020c6b3005c
:105200006b50e3005f023a005e10f8006810f9008e
:1052100056023700a0c7b3006450e30066003a00ae
:10522000200e2000000c7800284090000028a300e9
:105230000400320040c0b3002044980030c0b300e6
:105240003e073700818180000128a30003003a0057
:105250000004a10020449800020037000004a000d0
:1052600020449800284190000040eb000208a30071
:1052700032073a000120a00081818800e0c22100ad
:105280000008eb00300e2000000c78002840900051
:105290000028a3000400320040c0b300204498005e
:1052a00030c0b3002507370011a52900e0c2210056
:1052b000eb0d0700e24f500004003600284090003c
:1052c0000004a1002044980003003700284090000b
:1052d0000004a00020449800a84090000040eb008b
:1052e0000108a30015073a003050a900600e200005
:1052f000000c7800284090000028a3000400320031
:1053000040c0b3002044980030c0b3000b07370002
:10531000818180000128a30003003a000004a1005d
:1053200020449800020037000004a00020449800a8
:10533000284190000040eb000208a300ff063a005d
:105340000120a00081818800e0c221000008eb005c
:10535000700e2000000c7800284090000028a30068
:105360000400320040c0b3002044980030c0b300b5
:10537000f206370041a72900e0c22100b80d07005e
:10538000e24f500004003600284090000004a100c5
:105390002044980003003700284090000004a0003b
:1053a00020449800a84090000040eb000108a300b2
:1053b000e2063a003050a900b00e2000000c780040
:1053c000284090000028a3000400320040c0b30031
:1053d0002044980030c0b300d80637008181800097
:1053e0000128a30003003a000004a1002044980013
:1053f000020037000004a0002044980028419000db
:105400000040eb000208a300cc063a000120a000f7
:1054100081818800e0c221000008eb00c00e20005e
:10542000000c7800284090000028a30004003200ff
:1054300040c0b3002044980030c0b300bf0637001e
:1054400001ac2900e0c22100850d0700e24f5000a9
:1054500004003600284090000004a1002044980079
:1054600003003700284090000004a000204498006a
:10547000a84090000040eb000108a300af063a00ee
:105480003050a900f00e2000000c78002840900059
:105490000028a3000400320040c0b300204498005c
:1054a00030c0b300a5063700818180000128a30029
:1054b00003003a000004a1002044980002003700d5
:1054c0000004a00020449800284190000040eb0018
:1054d0000208a30099063a000120a00081818800fb
:1054e000e0c221000008eb00000f2000000c780053
:1054f000284090000028a3000400320040c0b30000
:105500002044980030c0b3008c06370042838000ee
:105510008001eb00e0c221000c0c0700e24f5000bc
:1055200004003600284090000004a10020449800a8
:1055300003003700284090000004a0002044980099
:10554000a84090000040eb000108a3007b063a0051
:105550003050a900300f2000000c78002840900047
:105560000028a3000400320040c0b300204498008b
:1055700030c0b30071063700818180000138a3007c
:1055800003003a000004a100204498000200370004
:105590000004a00020449800284190000040eb0047
:1055a0000208a30065063a000130a000818188004e
:1055b00000c421000008eb00400f2000000c780020
:1055c000284090000028a3000400320040c0b3002f
:1055d0002044980030c0b3005806370012c0b30012
:1055e0004106210000c42100910c0700e24f500049
:1055f00004003600284090000004a10020449800d8
:1056000003003700284090000004a00020449800c8
:10561000a84090000040eb000108a30047063a00b4
:105620003070a90064d0bf00d1c2b300814f5000d8
:105630003b003a00418380000100e900408388007c
:1056400002003200f0828800480137004183880060
:10565000e00f2000000c7800284090000028a300f4
:105660000400320040c0b3002044980030c0b300b2
:1056700032063700818180000128a30003003a0030
:105680000004a10020449800020037000004a0009c
:1056900020449800284190000040eb000208a3003d
:1056a00026063a000120a00081818800e0c2210086
:1056b0000008eb00f00f2000000c7800284090005c
:1056c0000028a3000400320040c0b300204498002a
:1056d00030c0b3001906370091ad2900e0c22100a7
:1056e000df0c0700e24f5000040036002840900015
:1056f0000004a100204498000300370028409000d7
:105700000004a00020449800a84090000040eb0056
:105710000108a30009063a003050a9001301370020
:10572000d1c3b300814f50003c003a004183800058
:105730000100e800408388006010e30002003600aa
:10574000f08288000901370041838800b0102000f2
:10575000000c7800284090000028a30004003200cc
:1057600040c0b3002044980030c0b300f3053700b8
:10577000818180000128a30003003a000004a100f9
:1057800020449800020037000004a0002044980044
:10579000284190000040eb000208a300e7053a0012
:1057a0000120a00081818800e0c221000008eb00f8
:1057b000c0102000000c7800284090000028a300b2
:1057c0000400320040c0b3002044980030c0b30051
:1057d000da05370021b02900e0c22100a00c070043
:1057e000e24f500004003600284090000004a10061
:1057f0002044980003003700284090000004a000d7
:1058000020449800a84090000040eb000108a3004d
:10581000ca053a003050a900d400370031c7b300a0
:10582000814f500038003a00014078006af0b7001c
:1058300030112000000c7800284090000028a300c0
:105840000400320040c0b3002044980030c0b300d0
:10585000ba053700818180000128a30003003a00c7
:105860000004a10020449800020037000004a000ba
:1058700020449800284190000040eb000208a3005b
:10588000ae053a000120a00081818800e0c221001d
:105890000008eb0040112000000c78002840900028
:1058a0000028a3000400320040c0b3002044980048
:1058b00030c0b300a105370091aa2900e0c2210041
:1058c000670c0700e24f50000400360028409000ab
:1058d0000004a100204498000300370028409000f5
:1058e0000004a00020449800a84090000040eb0075
:1058f0000108a30091053a003050a900a0c7b300e9
:1059000064f0b7009900370090112000000c780077
:10591000284090000028a3000400320040c0b300db
:105920002044980030c0b300840537008181800096
:105930000128a30003003a000004a10020449800bd
:10594000020037000004a000204498002841900085
:105950000040eb000208a30078053a000120a000f7
:1059600081818800e0c221000008eb00a011200026
:10597000000c7800284090000028a30004003200aa
:1059800040c0b3002044980030c0b3006b0537001e
:10599000b1aa2900e0c22100310c0700e24f5000fb
:1059a00004003600284090000004a1002044980024
:1059b00003003700284090000004a0002044980015
:1059c000a84090000040eb000108a3005b053a00ee
:1059d0003050a900d0112000000c78002840900021
:1059e0000028a3000400320040c0b3002044980007
:1059f00030c0b30051053700818180000128a30029
:105a000003003a000004a10020449800020037007f
:105a10000004a00020449800284190000040eb00c2
:105a20000208a30045053a000120a00081818800fa
:105a3000e0c221000008eb00e0112000000c78001b
:105a4000284090000028a3000400320040c0b300aa
:105a50002044980030c0b3003805370011a5290054
:105a6000e0c22100fe0b0700e24f500004003600a8
:105a7000284090000004a100204498000300370053
:105a8000284090000004a00020449800a840900006
:105a90000040eb000108a30028053a003050a9009f
:105aa00010122000000c7800284090000028a3006d
:105ab0000400320040c0b3002044980030c0b3005e
:105ac0001e053700818180000128a30003003a00f1
:105ad0000004a10020449800020037000004a00048
:105ae00020449800284190000040eb000208a300e9
:105af00012053a000120a00081818800e0c2210047
:105b00000008eb0020122000000c780028409000d4
:105b10000028a3000400320040c0b30020449800d5
:105b200030c0b3000505370041a72900e0c22100bd
:105b3000cb0b0700e24f50000400360028409000d5
:105b40000004a10020449800030037002840900082
:105b50000004a00020449800a84090000040eb0002
:105b60000108a300f5043a003050a90030c7b30083
:105b70006a50e300a7fd3a00644040006af0b700b5
:105b80006670ef0030c6b3006b50e30060023a006d
:105b90006010f8006810f90057023700a0c7b30082
:105ba0006450e30066003a0000132000000c780007
:105bb000284090000028a3000400320040c0b30039
:105bc0002044980030c0b300dc043700818180009d
:105bd0000128a30003003a000004a100204498001b
:105be000020037000004a0002044980028419000e3
:105bf0000040eb000208a300d0043a000120a000fe
:105c000081818800e0c221000008eb001013200011
:105c1000000c7800284090000028a3000400320007
:105c200040c0b3002044980030c0b300c304370024
:105c300011a52900e0c22100890b0700e24f5000a6
:105c400004003600284090000004a1002044980081
:105c500003003700284090000004a0002044980072
:105c6000a84090000040eb000108a300b3043a00f4
:105c70003050a90040132000000c7800284090000c
:105c80000028a3000400320040c0b3002044980064
:105c900030c0b300a9043700818180000128a3002f
:105ca00003003a000004a1002044980002003700dd
:105cb0000004a00020449800284190000040eb0020
:105cc0000208a3009d043a000120a0008181880001
:105cd000e0c221000008eb0050132000000c780007
:105ce000284090000028a3000400320040c0b30008
:105cf0002044980030c0b3009004370041a7290029
:105d0000e0c22100560b0700e24f500004003600ad
:105d1000284090000004a1002044980003003700b0
:105d2000284090000004a00020449800a840900063
:105d30000040eb000108a30080043a003050a900a5
:105d400090132000000c7800284090000028a30049
:105d50000400320040c0b3002044980030c0b300bb
:105d600076043700818180000128a30003003a00f7
:105d70000004a10020449800020037000004a000a5
:105d800020449800284190000040eb000208a30046
:105d90006a043a000120a00081818800e0c221004d
:105da0000008eb00a0132000000c780028409000b1
:105db0000028a3000400320040c0b3002044980033
:105dc00030c0b3005d04370011b32900e0c22100e8
:105dd000230b0700e24f50000400360028409000db
:105de0000004a100204498000300370028409000e0
:105df0000004a00020449800a84090000040eb0060
:105e00000108a3004d043a003050a900d01320002f
:105e1000000c7800284090000028a3000400320005
:105e200040c0b3002044980030c0b30043043700a2
:105e3000818180000128a30003003a000004a10032
:105e400020449800020037000004a000204498007d
:105e5000284190000040eb000208a30037043a00fc
:105e60000120a00081818800e0c221000008eb0031
:105e7000e0132000000c7800284090000028a300c8
:105e80000400320040c0b3002044980030c0b3008a
:105e90002a043700428380008001eb00e0c2210029
:105ea000aa090700e24f5000040036002840900085
:105eb0000004a1002044980003003700284090000f
:105ec0000004a00020449800a84090000040eb008f
:105ed0000108a30019043a003050a9001014200052
:105ee000000c7800284090000028a3000400320035
:105ef00040c0b3002044980030c0b3000f04370006
:105f0000818180000138a30003003a000004a10051
:105f100020449800020037000004a00020449800ac
:105f2000284190000040eb000208a30003043a005f
:105f30000130a0008181880000c421000008eb002e
:105f400020142000000c7800284090000028a300b6
:105f50000400320040c0b3002044980030c0b300b9
:105f6000f603370012c0b3004106210000c421002f
:105f70002f0a0700e24f500004003600284090002e
:105f80000004a1002044980003003700284090003e
:105f90000004a00020449800a84090000040eb00be
:105fa0000108a300e5033a003070a90064d0bf00e7
:105fb000d1c2b300814f50003c003a0041838000c1
:105fc0000100e900408388005e10e3000200310018
:105fd000008388004801370041838800c0142000f6
:105fe000000c7800284090000028a3000400320034
:105ff00040c0b3002044980030c0b300cf03370046
:10600000818180000128a30003003a000004a10060
:1060100020449800020037000004a00020449800ab
:10602000284190000040eb000208a300c3033a009f
:106030000120a00081818800e0c221000008eb005f
:10604000d0142000000c7800284090000028a30005
:106050000400320040c0b3002044980030c0b300b8
:10606000b6033700c1b42900e0c221007c0a070052
:10607000e24f500004003600284090000004a100c8
:106080002044980003003700284090000004a0003e
:1060900020449800a84090000040eb000108a300b5
:1060a000a6033a003050a90013013700d1c3b30052
:1060b000814f50003c003a00418380000100e8001d
:1060c000408388006210e3000200360000838800ed
:1060d000090137004183880090152000000c7800ea
:1060e000284090000028a3000400320040c0b30004
:1060f0002044980030c0b3009003370081818000b5
:106100000128a30003003a000004a10020449800e5
:10611000020037000004a0002044980028419000ad
:106120000040eb000208a30084033a000120a00015
:1061300081818800e0c221000008eb00a01520004a
:10614000000c7800284090000028a30004003200d2
:1061500040c0b3002044980030c0b300770337003c
:1061600091b72900e0c221003d0a0700e24f50002c
:1061700004003600284090000004a100204498004c
:1061800003003700284090000004a000204498003d
:10619000a84090000040eb000108a30067033a000c
:1061a0003050a900d400370031c7b300814f5000f0
:1061b00038003a00014078006af0b700101620005d
:1061c000000c7800284090000028a3000400320052
:1061d00040c0b3002044980030c0b30057033700dc
:1061e000818180000128a30003003a000004a1007f
:1061f00020449800020037000004a00020449800ca
:10620000284190000040eb000208a3004b033a0035
:106210000120a00081818800e0c221000008eb007d
:1062200020162000000c7800284090000028a300d1
:106230000400320040c0b3002044980030c0b300d6
:106240003e03370091aa2900e0c22100040a07009a
:10625000e24f500004003600284090000004a100e6
:106260002044980003003700284090000004a0005c
:1062700020449800a84090000040eb000108a300d3
:106280002e033a003050a900a0c7b30064f0b70055
:106290009900370070162000000c7800284090000c
:1062a0000028a3000400320040c0b300204498003e
:1062b00030c0b30021033700818180000128a30092
:1062c00003003a000004a1002044980002003700b7
:1062d0000004a00020449800284190000040eb00fa
:1062e0000208a30015033a000120a0008181880064
:1062f000e0c221000008eb0080162000000c7800ae
:10630000284090000028a3000400320040c0b300e1
:106310002044980030c0b30008033700b1aa290018
:10632000e0c22100ce090700e24f50000400360011
:10633000284090000004a10020449800030037008a
:10634000284090000004a00020449800a84090003d
:106350000040eb000108a300f8023a003050a90009
:10636000b0162000000c7800284090000028a30000
:106370000400320040c0b3002044980030c0b30095
:10638000ee023700818180000128a30003003a005b
:106390000004a10020449800020037000004a0007f
:1063a00020449800284190000040eb000208a30020
:1063b000e2023a000120a00081818800e0c22100b1
:1063c0000008eb00c0162000000c78002840900068
:1063d0000028a3000400320040c0b300204498000d
:1063e00030c0b300d502370011a52900e0c221005a
:1063f0009b090700e24f500004003600284090003f
:106400000004a100204498000300370028409000b9
:106410000004a00020449800a84090000040eb0039
:106420000108a300c5023a003050a900f016200070
:10643000000c7800284090000028a30004003200df
:1064400040c0b3002044980030c0b300bb02370006
:10645000818180000128a30003003a000004a1000c
:1064600020449800020037000004a0002044980057
:10647000284190000040eb000208a300af023a0060
:106480000120a00081818800e0c221000008eb000b
:1064900000172000000c7800284090000028a3007e
:1064a0000400320040c0b3002044980030c0b30064
:1064b000a202370041a72900e0c2210068090700b5
:1064c000e24f500004003600284090000004a10074
:1064d0002044980003003700284090000004a000ea
:1064e00020449800a84090000040eb000108a30061
:1064f00092023a003050a90030c7b3006a50e3005e
:10650000a6fd3a00644040006af0b7006670ef00f4
:1065100040c6b3006b50e3005e023a006210f80020
:106520006810f90058023700a0c7b3006450e300b8
:1065300066003a00e0172000000c78002840900028
:106540000028a3000400320040c0b300204498009b
:1065500030c0b30079023700818180000128a30098
:1065600003003a000004a100204498000200370014
:106570000004a00020449800284190000040eb0057
:106580000208a3006d023a000120a000818188006a
:10659000e0c221000008eb00f0172000000c78009a
:1065a000284090000028a3000400320040c0b3003f
:1065b0002044980030c0b3006002370011a52900c4
:1065c000e0c2210026090700e24f50000400360017
:1065d000284090000004a1002044980003003700e8
:1065e000284090000004a00020449800a84090009b
:1065f0000040eb000108a30050023a003050a9000f
:1066000020182000000c7800284090000028a300eb
:106610000400320040c0b3002044980030c0b300f2
:1066200046023700818180000128a30003003a0060
:106630000004a10020449800020037000004a000dc
:1066400020449800284190000040eb000208a3007d
:106650003a023a000120a00081818800e0c22100b6
:106660000008eb0030182000000c78002840900053
:106670000028a3000400320040c0b300204498006a
:1066800030c0b3002d02370041a72900e0c221002d
:10669000f3080700e24f5000040036002840900045
:1066a0000004a10020449800030037002840900017
:1066b0000004a00020449800a84090000040eb0097
:1066c0000108a3001d023a003050a90070182000f4
:1066d000000c7800284090000028a300040032003d
:1066e00040c0b3002044980030c0b300130237000c
:1066f000818180000128a30003003a000004a1006a
:1067000020449800020037000004a00020449800b4
:10671000284190000040eb000208a30007023a0065
:106720000120a00081818800e0c221000008eb0068
:1067300080182000000c7800284090000028a3005a
:106740000400320040c0b3002044980030c0b300c1
:10675000fa01370081ba2900e0c22100c008070011
:10676000e24f500004003600284090000004a100d1
:106770002044980003003700284090000004a00047
:1067800020449800a84090000040eb000108a300be
:10679000ea013a003050a900b0182000000c78003f
:1067a000284090000028a3000400320040c0b3003d
:1067b0002044980030c0b300e001370081818000a0
:1067c0000128a30003003a000004a100204498001f
:1067d000020037000004a0002044980028419000e7
:1067e0000040eb000208a300d4013a000120a00001
:1067f00081818800e0c221000008eb00c018200061
:10680000000c7800284090000028a300040032000b
:1068100040c0b3002044980030c0b300c701370027
:10682000428380008001eb00e0c22100470707009f
:10683000e24f500004003600284090000004a10000
:106840002044980003003700284090000004a00076
:1068500020449800a84090000040eb000108a300ed
:10686000b6013a003050a900f0182000000c780062
:10687000284090000028a3000400320040c0b3006c
:106880002044980030c0b300ac0137008181800003
:106890000138a30003003a000004a100204498003e
:1068a000020037000004a000204498002841900016
:1068b0000040eb000208a300a0013a000130a00054
:1068c0008181880000c421000008eb00001920002d
:1068d000000c7800284090000028a300040032003b
:1068e00040c0b3002044980030c0b300930137008b
:1068f00012c0b3004106210000c42100cc070700ec
:10690000e24f500004003600284090000004a1002f
:106910002044980003003700284090000004a000a5
:1069200020449800a84090000040eb000108a3001c
:1069300082013a003070a90064d0bf00d1c2b30018
:10694000814f50003c003a00418380000100e90083
:10695000408388006010e30002003100108388004b
:106960004901370041838800a0192000000c7800fd
:10697000284090000028a3000400320040c0b3006b
:106980002044980030c0b3006c0137008181800042
:106990000128a30003003a000004a100204498004d
:1069a000020037000004a000204498002841900015
:1069b0000040eb000208a30060013a000120a000a3
:1069c00081818800e0c221000008eb00b01920009e
:1069d000000c7800284090000028a300040032003a
:1069e00040c0b3002044980030c0b30053013700ca
:1069f00011bc2900e0c2210019080700e24f500035
:106a000004003600284090000004a10020449800b3
:106a100003003700284090000004a00020449800a4
:106a2000a84090000040eb000108a30043013a0099
:106a30003050a90014013700d1c3b300814f50007a
:106a40003d003a00418380000100e8004083880057
:106a500032062000820f500002003e0010838800a2
:106a60000901370041838800701a2000000c78006b
:106a7000284090000028a3000400320040c0b3006a
:106a80002044980030c0b3002c0137008181800081
:106a90000128a30003003a000004a100204498004c
:106aa000020037000004a000204498002841900014
:106ab0000040eb000208a30020013a000120a000e2
:106ac00081818800e0c221000008eb00801a2000cc
:106ad000000c7800284090000028a3000400320039
:106ae00040c0b3002044980030c0b3001301370009
:106af000e1be2900e0c22100d9070700e24f5000a3
:106b000004003600284090000004a10020449800b2
:106b100003003700284090000004a00020449800a3
:106b2000a84090000040eb000108a30003013a00d8
:106b30003050a900d400370031c7b300814f500056
:106b400038003a00014078006af0b700f01a2000df
:106b5000000c7800284090000028a30004003200b8
:106b600040c0b3002044980030c0b300f3003700a9
:106b7000818180000128a30003003a000004a100e5
:106b800020449800020037000004a0002044980030
:106b9000284190000040eb000208a300e7003a0003
:106ba0000120a00081818800e0c221000008eb00e4
:106bb000001b2000000c7800284090000028a30053
:106bc0000400320040c0b3002044980030c0b3003d
:106bd000da00370091aa2900e0c22100a0070700cf
:106be000e24f500004003600284090000004a1004d
:106bf0002044980003003700284090000004a000c3
:106c000020449800a84090000040eb000108a30039
:106c1000ca003a003050a900a0c7b30064f0b70022
:106c200099003700501b2000000c7800284090008d
:106c30000028a3000400320040c0b30020449800a4
:106c400030c0b300bd003700818180000128a3005f
:106c500003003a000004a10020449800020037001d
:106c60000004a00020449800284190000040eb0060
:106c70000208a300b1003a000120a0008181880031
:106c8000e0c221000008eb00601b2000000c78002f
:106c9000284090000028a3000400320040c0b30048
:106ca0002044980030c0b300a4003700b1aa2900e6
:106cb000e0c221006a070700e24f500004003600de
:106cc000284090000004a1002044980003003700f1
:106cd000284090000004a00020449800a8409000a4
:106ce0000040eb000108a30094003a003050a900d6
:106cf000901b2000000c7800284090000028a30082
:106d00000400320040c0b3002044980030c0b300fb
:106d10008a003700818180000128a30003003a0027
:106d20000004a10020449800020037000004a000e5
:106d300020449800284190000040eb000208a30086
:106d40007e003a000120a00081818800e0c221007d
:106d50000008eb00a01b2000000c780028409000e9
:106d60000028a3000400320040c0b3002044980073
:106d700030c0b3007100370011a52900e0c2210026
:106d800037070700e24f500004003600284090000b
:106d90000004a10020449800030037002840900020
:106da0000004a00020449800a84090000040eb00a0
:106db0000108a30061003a003050a900d01b200058
:106dc000000c7800284090000028a3000400320046
:106dd00040c0b3002044980030c0b30057003700d3
:106de000818180000128a30003003a000004a10073
:106df00020449800020037000004a00020449800be
:106e0000284190000040eb000208a3004b003a002c
:106e10000120a00081818800e0c221000008eb0071
:106e2000e01b2000000c7800284090000028a30000
:106e30000400320040c0b3002044980030c0b300ca
:106e40003e00370041a72900e0c2210004070700e7
:106e5000e24f500004003600284090000004a100da
:106e60002044980003003700284090000004a00050
:106e700020449800a84090000040eb000108a300c7
:106e80002e003a003050a90030c7b3006a50e3002a
:106e9000a5fd3a0070c7b3006af0b7006670ef0056
:106ea0004d120700300498004104980010002000a3
:106eb000010020005004980061049800a01c2000ec
:106ec000000c7800284090000028a3000400320045
:106ed00040c0b3002044980030c0b3001700370012
:106ee00058019000e801900038009000c800900020
:106ef000bf0807000000e0000400320028409000b6
:106f00000004a100204498000300370028409000ae
:106f10000004a00020449800a84090000040eb002e
:106f20000108a3007df532000400370080c0b300e3
:106f300020449800000ceb0030c0b3004f047800f0
:106f400000000600881f78000004780028409000a8
:106f50000074a00020449800180078000000e000b1
:106f600003003200fa0f50002c003a0011003700e5
:106f7000a07080000080ea004f00de004f00dd00be
:106f8000a170800001f0a10081007000a170880054
:106f9000111207003004980041049800401f20009f
:106fa000010020005004980061049800a001200016
:106fb000000c7800284090000028a3000400320054
:106fc00040c0b3002044980030c0b3001700370021
:106fd00058019000e801900038009000c80090002f
:106fe000830807000000e000040032002840900001
:106ff0000004a100204498000300370028409000be
:107000000004a00020449800a84090000040eb003d
:107010000108a300d6ff32000400370080c0b3008f
:1070200020449800000ceb0030c0b3004f047800ff
:1070300000000600eb1107000000060080e4880055
:107040000000060090e488000000060013aeab00cc
:1070500003003a001000200040e3880002003700df
:1070600080c621000008eb0000000600138eab0074
:1070700003003a001000200080e38800020037007f
:1070800000c721000008eb0000000600220ee2000d
:107090000300350010002000c0e388000200370024
:1070a00080c721000008eb000000060080c6210018
:1070b000100078000000a20000f0a7000000ea0025
:1070c0000000e9004f00de000000060040e3800001
:1070d00000f0a7000000ea000000e9004f00de0019
:1070e00000000600889fbe00000478002840900041
:1070f0000074a0002044980018007800510220007d
:10710000810f50004200320007003e008180e900fc
:10711000810f50001000320024003e000000e0000b
:107120000b0032009b00370081022000810f5000cd
:10713000660032008100e800810f50007c003200c0
:107140008180e900810f500092003a004a00370028
:1071500030022000000c7800a84490000928a30009
:107160000400320040c0b3002044980030c0b30097
:107170008c003700cdff07000000e0000300320064
:107180000904a10029449800020037000904a00066
:1071900029449800a84090000040eb000108a3009b
:1071a00080003a0040022000000c78002840900047
:1071b0000028a3000400320040c0b300204498001f
:1071c00030c0b30077003700818180000128a30020
:1071d00003003a000004a100204498000200370098
:1071e0000004a00020449800284190000040eb00db
:1071f0000208a3006b003a000120a00081818800f2
:10720000e0c221000008eb0050022000000c7800d2
:10721000284090000028a3000400320040c0b300c2
:107220002044980030c0b3005e00370081c12900bf
:10723000e0c221000a060700e24f500004003600b9
:10724000284090000004a10020449800030037006b
:10725000284090000004a00020449800a84090001e
:107260000040eb000108a3004e003a003050a90096
:1072700070022000000c7800a84490000928a300a8
:107280000400320040c0b3002044980030c0b30076
:10729000440037008dff07000000e00003003200cb
:1072a0000904a10029449800020037000904a00045
:1072b00029449800a84090000040eb000108a3007a
:1072c00038003a0080022000000c7800284090002e
:1072d0000028a3000400320040c0b30020449800fe
:1072e00030c0b3002f003700818180000128a30047
:1072f00003003a000004a100204498000200370077
:107300000004a00020449800284190000040eb00b9
:107310000208a30023003a000120a0008181880018
:10732000e0c221000008eb0090022000000c780071
:10733000284090000028a3000400320040c0b300a1
:107340002044980030c0b3001600370081c22900e5
:10735000e0c22100c2050700e24f500004003600e1
:10736000284090000004a10020449800030037004a
:10737000284090000004a00020449800a8409000fd
:107380000040eb000108a30006003a003050a900bd
:107390006fff370080c0b30020449800000ceb0062
:1073a00030c0b3004f04be0000000600a0c621009c
:1073b000100078000000a20000f0a7000000ea0022
:1073c0000000e9004f00de000000060000c72100b9
:1073d000100078000000a20000f0a7000000ea0002
:1073e0000000e9004f00de000000060080e380009e
:1073f00000f0a7000000ea000000e9004f00de00f6
:1074000000000600889fbe0000047800284090001d
:107410000074a00020449800180078006103200048
:10742000810f50004200320007003e008180e900d9
:10743000810f50001000320024003e000000e000e8
:107440000b0032009b00370091032000810f500099
:10745000660032008100e800810f50007c0032009d
:107460008180e900810f500092003a004a00370005
:1074700040032000000c7800a84490000928a300d5
:107480000400320040c0b3002044980030c0b30074
:107490008c003700cdff07000000e0000300320041
:1074a0000904a10029449800020037000904a00043
:1074b00029449800a84090000040eb000108a30078
:1074c00080003a0050032000000c78002840900013
:1074d0000028a3000400320040c0b30020449800fc
:1074e00030c0b30077003700818180000128a300fd
:1074f00003003a000004a100204498000200370075
:107500000004a00020449800284190000040eb00b7
:107510000208a3006b003a000120a00081818800ce
:10752000e0c221000008eb0060032000000c78009e
:10753000284090000028a3000400320040c0b3009f
:107540002044980030c0b3005e00370091c329008a
:10755000e0c2210042050700e24f5000040036005f
:10756000284090000004a100204498000300370048
:10757000284090000004a00020449800a8409000fb
:107580000040eb000108a3004e003a003050a90073
:1075900080032000000c7800a84490000928a30074
:1075a0000400320040c0b3002044980030c0b30053
:1075b000440037008dff07000000e00003003200a8
:1075c0000904a10029449800020037000904a00022
:1075d00029449800a84090000040eb000108a30057
:1075e00038003a0090032000000c780028409000fa
:1075f0000028a3000400320040c0b30020449800db
:1076000030c0b3002f003700818180000128a30023
:1076100003003a000004a100204498000200370053
:107620000004a00020449800284190000040eb0096
:107630000208a30023003a000120a00081818800f5
:10764000e0c221000008eb00a0032000000c78003d
:10765000284090000028a3000400320040c0b3007e
:107660002044980030c0b3001600370091c42900b0
:10767000e0c22100fa040700e24f50000400360087
:10768000284090000004a100204498000300370027
:10769000284090000004a00020449800a8409000da
:1076a0000040eb000108a30006003a003050a9009a
:1076b0006fff370080c0b30020449800000ceb003f
:1076c00030c0b3004f04be000000060020c72100f8
:1076d000100078000000a20000f0a7000000ea00ff
:1076e0000000e9004f00de000000060080c7210016
:1076f000100078000000a20000f0a7000000ea00df
:107700000000e9004f00de0000000600c0e380003a
:1077100000f0a7000000ea000000e9004f00de00d2
:1077200000000600889fbe0000047800a844900076
:107730000974a00029449800180078007105200001
:10774000810f50003a00320007003e008180e900be
:10775000810f50000d00320020003e000000e000cc
:10776000080032007800370091052000810f50009a
:10777000440032008100e800810f500072003a009e
:107780005900370050052000000c78000928a3009c
:107790000400320040c0b3002044980030c0b30061
:1077a0006d003700d1ff07000000e0000300320049
:1077b0000904a10029449800020037000904a00030
:1077c00029449800a84090000040eb000108a30065
:1077d00061003a0060052000000c7800a844900089
:1077e0000928a3000400320040c0b30020449800e0
:1077f00030c0b30058003700c4ff07000000e000ad
:10780000030032000904a100294498000200370057
:107810000904a00029449800a84090000040eb0013
:107820000108a3004c003a0070052000000c78000d
:10783000a84490000928a3000400320040c0b3000f
:107840002044980030c0b30043003700a7ff070072
:107850000000e000030032000904a1002944980060
:10786000020037000904a00029449800a8409000b5
:107870000040eb000108a30037003a00900520000b
:10788000000c7800284090000028a300040032007b
:1078900040c0b3002044980030c0b3002e00370031
:1078a000818180000128a30003003a000004a100a8
:1078b00020449800020037000004a00020449800f3
:1078c000284190000040eb000208a30022003a008b
:1078d0000120a00081818800e0c221000008eb00a7
:1078e000a0052000000c7800284090000028a3008c
:1078f0000400320040c0b3002044980030c0b30000
:1079000015003700a1c52900e0c22100540407007a
:10791000e24f500004003600284090000004a1000f
:107920002044980003003700284090000004a00085
:1079300020449800a84090000040eb000108a300fc
:1079400005003a003050a90080c0b30020449800e0
:10795000000ceb0030c0b3004f04be000000060076
:10796000889fbe0000047800284090000074a000aa
:10797000204498001800780071042000810f500006
:107980004200320007003e008180e900810f500074
