:020000040000fa
:080000000013040000000000e1
:020000040000fa
:1000080002100000061000000a1000000e10000088
:1000180012100000161000001a1000001e10000038
:1000280022100000261000002a1000002e100000e8
:1000380032100000361000003a1000003e10000098
:1000480042100000461000004a1000004e10000048
:1000580052100000561000005a1000005e100000f8
:1000680062100000661000006a1000006e100000a8
:1000780072100000761000007a1000007e10000058
:1000880082100000861000008a1000008e10000008
:1000980092100000961000009a1000009e100000b8
:1000a800a2100000a6100000aa100000ae10000068
:1000b800b2100000b6100000ba100000be10000018
:1000c800c2100000c6100000ca100000ce100000c8
:1000d800d2100000d6100000da100000de10000078
:1000e800e2100000e6100000ea100000ee10000028
:1000f800f2100000f6100000fa100000fe100000d8
:1001080002110000061100000a1100000e11000083
:1001180012110000161100001a1100001e11000033
:1001280022110000261100002a1100002e110000e3
:1001380032110000361100003a1100003e11000093
:1001480042110000461100004a1100004e11000043
:1001580052110000561100005a1100005e110000f3
:1001680062110000661100006a1100006e110000a3
:1001780072110000761100007a1100007e11000053
:1001880082110000861100008a1100008e11000003
:1001980092110000961100009a1100009e110000b3
:1001a800a2110000a6110000aa110000ae11000063
:1001b800b2110000b6110000ba110000be11000013
:1001c800c2110000c6110000ca110000ce110000c3
:1001d800d2110000d6110000da110000de11000073
:1001e800e2110000e6110000ea110000ee11000023
:1001f800f2110000f6110000fa110000fe110000d3
:1002080002120000061200000a1200000e1200007e
:1002180012120000161200001a1200001e1200002e
:1002280022120000261200002a1200002e120000de
:1002380032120000361200003a1200003e1200008e
:1002480042120000461200004a1200004e1200003e
:1002580052120000561200005a1200005e120000ee
:020000040000fa
:10200000020000001a140400000000001a1404006a
:10201000000000001a140400000000001a1404005c
:10202000000000001a140400000000001a1404004c
:10203000000000001a140400000000001a1404003c
:10204000000000001a140400000000001a1404002c
:10205000000000001a1404000000000096140400a0
:10206000000000001a140400000000001a1404000c
:10207000000000001a140400000000001a140400fc
:10208000000000001a140400000000001a140400ec
:10209000000000001a140400000000007414040082
:1020a0000000000048140400000000001a1404009e
:1020b000000000001a140400000000001a140400bc
:1020c000000000001a140400000000001a140400ac
:1020d000000000001a140400000000001a1404009c
:1020e000000000001a140400000000001a1404008c
:1020f000000000001a140400000000001a1404007c
:10210000000000001a140400000000001a1404006b
:10211000000000001a140400000000001a1404005b
:10212000000000001a140400000000001a1404004b
:10213000000000001a140400000000001a1404003b
:10214000000000001a140400000000001a1404002b
:10215000000000001a140400000000001a1404001b
:10216000000000001a140400000000001a1404000b
:10217000000000001a140400000000001a140400fb
:10218000000000001a140400000000001a140400eb
:10219000000000001a140400000000001a140400db
:1021a000000000001a140400000000001a140400cb
:1021b000000000001a140400000000001a140400bb
:1021c000000000001a140400000000001a140400ab
:1021d000000000001a140400000000001a1404009b
:1021e000000000001a140400000000001a1404008b
:1021f000000000001a140400000000001a1404007b
:10220000000000001a140400000000001a1404006a
:10221000000000001a140400000000001a1404005a
:10222000000000001a140400000000001a1404004a
:10223000000000001a140400000000001a1404003a
:10224000000000001a140400000000001a1404002a
:10225000000000001a140400000000001a1404001a
:10226000000000001a140400000000001a1404000a
:10227000000000001a140400000000001a140400fa
:10228000000000001a140400000000001a140400ea
:10229000000000001a140400000000001a140400da
:1022a000000000001a140400000000001a140400ca
:1022b000000000001a140400000000001a140400ba
:1022c000000000001a140400000000001a140400aa
:1022d000000000001a140400000000001a1404009a
:1022e000000000001a140400000000001a1404008a
:1022f000000000001a140400000000001a1404007a
:10230000000000001a140400000000001a14040069
:10231000000000001a140400000000001a14040059
:10232000000000001a140400000000001a14040049
:10233000000000001a140400000000001a14040039
:10234000000000001a140400000000001a14040029
:10235000000000001a140400000000001a14040019
:10236000000000001a140400000000001a14040009
:10237000000000001a140400000000001a140400f9
:10238000000000001a140400000000001a140400e9
:10239000000000001a140400000000001a140400d9
:1023a000000000001a140400000000001a140400c9
:1023b000000000001a140400000000001a140400b9
:1023c000000000001a140400000000001a140400a9
:1023d000000000001a140400000000001a14040099
:1023e000000000001a140400000000001a14040089
:1023f000000000001a140400000000001a14040079
:10240000000000001a140400000000001a14040068
:10241000000000001a140400000000001a14040058
:10242000000000001a140400000000001a14040048
:10243000000000001a140400000000001a14040038
:10244000000000001a140400000000001a14040028
:10245000000000001a140400000000001a14040018
:10246000000000001a140400000000001a14040008
:10247000000000001a140400000000001a140400f8
:10248000000000001a140400000000001a140400e8
:10249000000000001a140400000000001a140400d8
:1024a000000000001a140400000000001a140400c8
:1024b000000000001a140400000000001a140400b8
:0424c0000000000018
:020000040000fa
:102600006fdf21000eff27000e0188000000000090
:10261000000020000000e000020032000001200065
:102620002002880014000700d30007000000e0002b
:1026300003003a0060b125000100200002003700cd
:102640000000200001002000810f70000100320016
:102650000f000700000020000000e0000200320030
:102660000000020000000000204602000000000000
:102670000040da000000fe00807920000000e00049
:1026800002003200002020009001880000000600b7
:10269000a1028800800478000000eb001f003700d2
:1026a000e284440054a0b4009905ba00e2844400d6
:1026b00054a0b4009906ba00e284440054a0b400c7
:1026c0000006eb00476fde00fd07b200ae01880098
:1026d000636ce10003003a000ad801000000eb003f
:1026e0000e003700606ce10008003a00004deb007e
:1026f0000a05e800020039003420ec000af0a000ce
:102700008b05e900f9ff3e00040037006168e10035
:10271000010032000086eb000b00070019c7ba0069
:102720000e04e0001905ba0003003a000a00e000b8
:10273000dbff3a0000000600fe07b200ae02880090
:102740008a047800f5ff37000cd0a300e20f4d009b
:102750001c00390089027800354dba000a05e800ee
:10276000020039003420ec000af0a0008b05e900db
:102770000f003200254dba000a05e80002003900ba
:102780003420ec000af0a0008b05e90008003200bc
:102790000c00e0000600320015cdba000a05e80082
:1027a000020039003420ec000af0a0008b05e9009b
:1027b0008984e80054a0b4000b00e000e2ff3a0076
:1027c000000006009902ba00055d78008b05e9005b
:1027d000f7ff3200c82ade00055d78008b05e900ae
:1027e000f3ff32000c00e000f1ff320019ddba0007
:1027f000eeff37009021040000000000e4200400f8
:10280000000000004423040000000000cc34040059
:1028100000000000a446040000000000a0460400e0
:10282000000000000e47040000000000be48040045
:10283000000000003600f800809fbe00829fbe00ae
:10284000849fbe00869fbe003200f8003400f8006e
:1028500010002000a00188000020200000d0fe0011
:10286000c808f8008810f900c0942900be1d0700b0
:102870003400f9003200f9004f03be004f02be00e1
:102880004f01be004f00be003600f90000400600b8
:10289000809fbe000000210090009000200090006a
:1028a000808f500002003a002188a9000c003700f8
:1028b0000430ec00000420000410e30001003a00a2
:1028c0000430ef000188a90000002100900078008a
:1028d00020009000008040001080fb002011880044
:1028e0004f00be0000400600809fbe00821f78009f
:1028f0000168a900311180000a30ec0000042000ba
:102900000a10e30001003a000a30ef0080002100c5
:10291000100178001000900000004100014878008c
:102920004f0178004f00be00004006003600f8005e
:10293000809fbe00829fbe00849fbe00869fbe0017
:10294000a0838000b183800061004000e0804800e7
:10295000a0838800b18388000068a900f3170700ee
:102960004f03be004f02be004f01be004f00be002d
:102970003600f90000400600000005006022b800a3
:10298000060220000000d0008180d2000482d20024
:102990008582d2000000a0000202520083825a0009
:1029a000030031000202420083824a000000a100bd
:1029b0000603e900f3ff3a0000000600efff0700fe
:1029c0000400be00000006000001fa00889fbe005f
:1029d0008a9fbe008c1f78000004be0002057800ac
:1029e000f0032000808f51000a003e000000eb0041
:1029f00005003700984078001a5c7800195d78006f
:102a0000815c78000000e800830f5000f9ff3a0075
:102a10001e003700030678008c05780000102000a7
:102a2000800f560001003600800578000b01780009
:102a30008800780060ef2f000f004000fd010700c4
:102a40000b0178008a00780008007800f90107007f
:102a50000b017800890078000a007800f501070072
:102a60000b01780061ef2f008f8040000900780093
:102a7000f00107000b0656000b0444008b84440051
:102a80000b0545000c00e000e3ff3a004f0678001c
:102a90004f05be004f04be000080fa000000060093
:102aa0000001fa00889fbe008a9fbe000005be009c
:102ab000f0032000800f510009003e000000eb00f1
:102ac000040037009a4078001b5d7800815d780033
:102ad0000000e800820f5000faff3a0018003700ab
:102ae000820478000904780000102000808f5400d0
:102af0000100360000047800080178008a007800a0
:102b000080ef2f000f004000ca0107000801780085
:102b10000a00be00c70107000801780081ef2f00fe
:102b20008f8040000b007800c201070088845400a9
:102b300008054500888545000900e000e9ff3a00e6
:102b40004f05be004f04be000080fa0000000600e2
:102b5000889fbe008a9fbe008c1f7800800478008a
:102b6000010478000205be00040678000800be00db
:102b70000c0001000000e00004003d000b017800a3
:102b80008800780009007800c5ff070088007800f9
:102b90000a0078000c0001000000e00004003d0085
:102ba0000b0178008a00780008007800bcff07005d
:102bb0000800be000c0001000000e00004003d0021
:102bc0000b0178008800780009007800b4ff070046
:102bd0004f0678004f05be004f04be0000000600ff
:102be000889fbe008a9fbe008c9fbe008e1f78000b
:102bf0008002780081047800820578000304780060
:102c00000406780005855500820220008299b900eb
:102c10008a0f510022003100110009000385d800fd
:102c2000000578004355de000a05e80083d5b900a9
:102c30000a8742000a014500028142008e007800a6
:102c400005007800c2ff07008a06ea000a814400f6
:102c50000d8044000c02780088017800890078001b
:102c6000bbff07008d864500e0ff2f0080d5b9002f
:102c70000a8045000c027800880178000b0178007a
:102c80008d007800b2ff07000c0278008801780000
:102c90000d017800890078000e00780003003700ed
:102ca0000b0178008900780005007800a8ff070074
:102cb0004f0778004f06be004f05be004f04be0010
:102cc00000000600e4874700889fbe008a9fbe0080
:102cd0008c9fbe008e1f78000004be000205be005f
:102ce00084bf9f000906e8000c06460089d8b90099
:102cf000000744008cd8b900800644000900780021
:102d0000150037008a0f5600060032008b805600ef
:102d10000d0078000fb99700020001000000e000ec
:102d200002003d000c06e9008b8656000b0178007e
:102d30008d0078000e00780059ff07008c00e80035
:102d4000818040008b89b9000c0078000d07780065
:102d500082064400010678008a0f5600e9ff36001b
:102d6000100037000006e9000c06d1008be5b90021
:102d70000a0544008a0078000e0078000fb9970019
:102d8000020001000000e000080034000b017800a0
:102d90008e0078000a00780041ff07000c007800e0
:102da0000a077800808f5400eeff39004f07780043
:102db0004f06be004f05be004f04be004f00b100dd
:102dc000000006000001fa00889fbe008a9fbe0036
:102dd0008c9fbe000005780001067800820578000f
:102de0008a0656008b8646008b0478001500370053
:102df0000904780000102000808f54000100360084
:102e000000047800888055008100460008017800a1
:102e100040ef2f000f004000060107000881560018
:102e2000080045008a0078000901070008017800c1
:102e300041ef2f008f8040000a007800fd0007005e
:102e4000888454000900e000e9ff3a004f06be0004
:102e50004f05be004f04be000080fa0000000600cf
:102e6000ea874700889fbe008a9fbe008c9fbe00f5
:102e70008e1f78000005780081067800e2b79f0079
:102e800003047800840578009b0037000d06d1000c
:102e900088e6b9000c06450088e8b9000000450046
:102ea000d0b79f00880446000800ea00f0b79f00f2
:102eb000dfb09700008140000b02780088017800a5
:102ec0008c0078000a00780045ff070001003700f9
:102ed0000d0678008c0f5500090031007fb1970076
:102ee000820646008c0078000d0078000b0001007f
:102ef0000000e000f6ff3200010037008884440043
:102f00005fb09700808f5400030039000c077800f1
:102f100089067800110037008c00780009007800dd
:102f20000b0001000000e000f4ff3200f7ff370063
:102f30000c00be000b0001000000e00006003500a0
:102f40001c003a00080178008d0078000900780024
:102f5000d3fe07008884440088864600dfb09700cf
:102f6000818f560013003100f1ff37007fb19700c9
:102f7000820147008c0078000300780083bf9f0027
:102f80000b0001008fb997000000e0000800350039
:102f90000a003a007fb0970000064600080178005a
:102fa000830078000c007800bdfe07008fb9970001
:102fb000030778008e0f5500ecff39008a0f570089
:102fc00014003a00dfb09700818f56002b003200ca
:102fd0008d8f540005003a00080178008c007800bd
:102fe00009007800aefe0700050037008801780070
:102ff000090178008c0078000d00780072fe07004f
:103000008886460008064600888444000a0778003f
:10301000d2ff37007fb19700020747005fb09700eb
:10302000808f560010003a00828444000206460059
:103030008c0f570006003a000801780089007800dc
:103040000e00780096fe07000e067800c3ff3700da
:10305000880178000c017800890078000e00780063
:1030600059fe0700bdff3700080178008e00780088
:103070000d0078008afe0700b7ff3700efb0970019
:103080000100d10001017800c210de008080400004
:10309000e1b79f000a065600110009000886d80013
:1030a0000006780089865600110009008886d8003d
:1030b000800678008d0f560008003e000b02780055
:1030c000880178006fb197008c0078000a007800c2
:1030d00063ff070009057800070037000b0278003e
:1030e000880178006fb197008d00780009007800a2
:1030f0005bff07008c067800efb097000100e0004e
:103100000400320000022000808f56005fff3e0066
:103110001e00370000022000808f56001b00360082
:103120008d04d1008904e9000b0278008801780041
:103130000d017800890078000a007800e1fe0700a0
:103140000900e000f7ff3a0088e8b9008004450074
:103150008884540008017800890078000a0078000b
:103160004ffe07008d06e9000b0278008801780009
:103170000d0178008000eb000a007800d1fe070006
:10318000e18f5600f2ff3e001f003700e18f56002e
:103190001d0036008a047800190037008884440036
:1031a0008a007800090078000b0001000000e000b0
:1031b00004003d0008017800890078000a007800ca
:1031c0000e00370009067800010037000e0678006f
:1031d000080756008e007800090078000b000100f7
:1031e0000000e000f9ff3500890f560004003200ae
:1031f00008017800890078000c007800f1fe0700d3
:103200008d06e900e5ff3a004f0778004f06be0043
:103210004f05be004f04be00af00b1000000060025
:1032200003027800820178000101780082007800b2
:103230000bff37008001780002003700b159780099
:103240000201e9000200e000fcff3a000000060075
:1032500000027800808f50000c0031008281400015
:10326000830f500009003100820040000200370047
:10327000c36078000201e9000200e000fcff3a00b0
:1032800000000600315a78000201e9000200e00067
:08329000fcff3a0000000600fb
:020000040000fa
:10329800556e0000686100006e6400006c650000f7
:1032a80064200000696e00007465000072720000fe
:1032b80075700000742c000020000000647300008a
:1032c80050490000433300003345000050350000ea
:1032d800313200004750000038300000360000004e
:1032e800756e00006b6e00006f7700006e000000c6
:1032f8004231000000440000657600006963000068
:103308006520000049440000203d00002000000026
:1033180020280000002900002c2000007265000011
:1033280076690000736900006f6e000020000000dd
:10333800290a0000000a00000a2a00002a2a0000c0
:103348002a2a00002a2a00002a2a00002a2a000025
:103358002a2a00002a2a00002a2a00002a2a000015
:103368002a2a00002a2a00002a2a00002a2a000005
:103378002a2a00002a2a00002a2a00002a2a0000f5
:103388002a2a00002a2a00002a2a00002a2a0000e5
:103398002a2a00002a2a00002a2a00002a2a0000d5
:1033a8002a2a00002a0a00002a20000057410000ab
:1033b800524e0000494e0000472000002d2000001a
:1033c800746800006973000020700000726f0000cc
:1033d80067720000616d00002077000061730000d3
:1033e800206300006f6d0000706900006c650000cc
:1033f80064200000666f00007220000074680000fe
:1034080065200000777200006f6e000067200000e2
:10341800202a00000a2a00002063000068690000d2
:10342800702e00002054000068690000732000001e
:10343800707200006f670000726100006d2000006c
:103448006d61000079200000707200006f64000058
:103458007563000065200000756e00006578000047
:10346800706500006374000065640000206200005d
:1034780065680000766900006f7200002120000076
:103488002a0a00002a200000456400006974000030
:103498002074000068650000206800006561000075
:1034a8006465000072200000666900006c65000019
:1034b80073200000746f000020700000726f00001d
:1034c80070650000726c00007920000064650000df
:1034d800666900006e6500002074000068690000dd
:1034e800732000006368000069700000202a000053
:1034f8000a2a0000206100006e64000020740000a9
:103508006f200000696e000073750000726500008e
:10351800206300006f720000726500006374000091
:10352800206f00007065000072610000746900007f
:103538006f6e00002e2000002020000020200000d8
:103548002020000020200000202000002020000073
:103558002020000020200000202000002a0a00006f
:103568002a20000020200000202000002020000049
:103578002020000020200000202000002020000043
:103588002020000020200000202000002020000033
:103598002020000020200000202000002020000023
:1035a8002020000020200000202000002020000013
:1035b8002020000020200000202000002020000003
:1035c8002020000020200000202a00000a2a0000f5
:1035d800204e00004f540000453a000020490000ea
:1035e80066200000746800006973000020770000fe
:1035f80061730000206300006f6d000070690000b7
:103608006c65000064200000666f000072200000f6
:103618007468000065200000636f0000727200008b
:103628006563000074200000636800006970000092
:103638002c200000202000002a0a00002a20000078
:10364800616e0000642000006f6e00006c7900005d
:10365800206f000063630000757200007320000093
:1036680061740000207000006f7700006572000030
:103678002d6f00006e200000286e00006f7400009f
:103688002064000075720000696e00006720000069
:10369800612000004d4300004c5200002020000033
:1036a80020200000202a00000a2a000020720000c2
:1036b8006573000065740000292c00002076000066
:1036c80065720000696600007920000074680000d7
:1036d80061740000204100005644000044200000ae
:1036e800616e000064200000415600005353000042
:1036f8002061000072650000206300006f6e00000a
:103708006e65000063740000656400002e200000f0
:10371800202000002a0a00002a2000004f6e000026
:103728002074000068650000205000004943000034
:1037380032340000483300003247000050320000a5
:10374800303200002c2000006e6f00007420000052
:10375800636f00006e6e000065630000746900000e
:103768006e6700002041000056440000442000001d
:103778002020000020200000202000002020000041
:10378800202a00000a2a000020700000726f000042
:103798006475000063650000732000007468000011
:1037a80069730000206d00006573000073610000fc
:1037b80067650000206f00006e6c00007920000033
:1037c80061740000207000006f77000065720000cf
:1037d8002d750000702e0000202000002020000021
:1037e80020200000202000002020000020200000d1
:1037f8002a0a00002a2a00002a2a00002a2a000091
:103808002a2a00002a2a00002a2a00002a2a000060
:103818002a2a00002a2a00002a2a00002a2a000050
:103828002a2a00002a2a00002a2a00002a2a000040
:103838002a2a00002a2a00002a2a00002a2a000030
:103848002a2a00002a2a00002a2a00002a2a000020
:103858002a2a00002a2a00002a2a00002a2a000010
:103868000a00000046610000737400002052000046
:10387800432000004f730000630a00000046000068
:10388800617300007420000052430000204f0000c4
:10389800736300002077000069740000682000004e
:1038a800504c00004c0a00000050000072690000f3
:1038b8006d61000072790000204f00007363000002
:1038c80020280000585400002c2000004853000015
:1038d8002c20000045430000290a00000050000089
:1038e800726900006d61000072790000204f0000cd
:1038f8007363000020280000585400002c200000aa
:10390800485300002c2000004543000029200000f7
:103918007769000074680000205000004c4c0000db
:103928000a00000053650000636f00006e64000029
:1039380061720000792000004f730000630a0000e4
:10394800004c00006f770000205000006f770000e7
:103958006572000020520000432000004f730000f1
:10396800630a000000460000617300007420000034
:1039780052430000204f0000736300002f31000005
:10398800360a000000460000617300007420000041
:1039980052430000204f0000736300002f4e0000c8
:1039a8000a000000556e00006b6e00006f77000083
:1039b8006e2000006f730000636900006c6c0000eb
:1039c800617400006f7200002074000079700000bc
:1039d800652e0000000a00004465000076690000ba
:1039e8006365000020680000617300002062000029
:1039f800656500006e200000696e000020730000fd
:103a08006c65000065700000206d00006f640000a8
:103a1800650a0000000a000044650000766900009d
:103a280063650000206800006173000020620000e8
:103a3800656500006e200000696e000020690000c6
:103a4800646c0000652000006d6f00006465000074
:103a58000a0000000a520000657300006574000047
:103a68002063000061750000736500003a200000c3
:103a7800005000006f770000657200002d6f000095
:103a88006e2e00000a000000536f000066740000ec
:103a98007761000072650000205200006573000025
:103aa800657400002e0a00000057000061740000d1
:103ab80063680000646f000067200000546900001c
:103ac8006d6500006f750000743a0000200000006a
:103ad8000a0000004d4300004c5200002061000025
:103ae8007373000065720000746900006f6e000057
:103af8002e0a000000420000726f0000776e00007e
:103b08002d6f0000757400002e0a0000005400009c
:103b18007261000070200000436f00006e660000b4
:103b28006c690000637400002e0a00000049000060
:103b38006c6c000065670000616c000020430000a9
:103b48006f6e000064690000746900006f6e000009
:103b58002e0a0000004300006f6e00006669000036
:103b68006775000072610000746900006f6e0000e4
:103b7800204d0000697300006d610000746300004f
:103b8800682e00000a000000556e00006b6e0000f1
:103b98006f7700006e2000007265000073650000fa
:103ba800742e00000a00000045720000726f0000c9
:103bb80072200000747200006170000070650000df
:103bc800643a00002000000050720000696f000095
:103bd80072690000747900003a200000002c00008f
:103be8002056000065630000746f0000722000001a
:103bf8006e7500006d620000657200003a200000da
:103c0800000a00000a00000055410000525400005c
:103c180031200000706100007269000074790000b2
:103c280020650000727200006f7200000a00000038
:103c38005541000052540000312000006672000017
:103c4800616d0000696e0000672000006572000069
:103c5800726f0000720a0000005500004152000017
:103c680054310000206f0000766500007272000079
:103c7800756e000020650000727200006f7200000f
:103c88000a00000055410000525400003220000094
:103c980070610000726900007479000020650000fe
:103ca800727200006f7200000a00000055410000a7
:103cb800525400003220000066720000616d00005e
:103cc800696e00006720000065720000726f0000d6
:103cd800720a0000005500004152000054320000f2
:103ce800206f00007665000072720000756e00009b
:103cf80020650000727200006f7200000a00000068
:103d0800554100005254000033200000706100004b
:103d1800726900007479000020650000727200006a
:103d28006f7200000a000000554100005254000064
:103d38003320000066720000616d0000696e0000ab
:103d48006720000065720000726f0000720a0000b0
:103d5800005500004152000054330000206f00005d
:103d68007665000072720000756e00002065000024
:103d7800727200006f7200000a00000055410000d6
:103d88005254000034200000706100007269000085
:103d98007479000020650000727200006f720000e4
:103da8000a00000055410000525400003420000071
:103db80066720000616d0000696e000067200000f7
:103dc80065720000726f0000720a00000055000062
:103dd8004152000054340000206f00007665000056
:103de80072720000756e000020650000727200009b
:103df8006f7200000a0000003078000000450000e3
:103e0800727200006f720000206900006e200000ce
:103e180062750000696c0000645c00006573000056
:103e28006f7300005f6500006d620000656400004c
:103e38006465000064460000313400005f33000010
:103e48003345000050350000313200004750000073
:103e580038300000365c00006c690000625c0000cd
:103e680073720000635c0000706900006332000038
:103e7800345f00007365000072690000616c000027
:103e88002e630000206c0000696e000065200000b1
:103e980032390000363a0000204900006e760000f2
:103ea800616c000069640000205500004152000068
:103eb8005400000045720000726f0000722000007c
:103ec800696e000020620000756900006c640000e3
:103ed8005c650000736f0000735f0000656d000093
:103ee80062650000646400006564000046310000fb
:103ef800345f0000333300004550000035310000c6
:103f08003247000050380000303600005c6c00007a
:103f1800696200005c730000726300005c7000005e
:103f280069630000323400005f73000065720000ae
:103f3800696100006c2e0000632000006c690000bd
:103f48006e65000020330000333500003a20000081
:103f5800496e0000766100006c6900006420000072
:103f68005541000052540000000500000302000003
:103f78000100000050c3000030750000204e000012
:103f88001027000088130000b80b0000d0070000bd
:103f9800e8030000f40100002c010000c800000044
:103fa80064000000320000001e0000001400000041
:103fb8000a000000050000000300000002000000e5
:103fc80001000000050300000201000005030000d5
:103fd80002010000321e0000140a00000503000060
:103fe800020100000a5000006f740000656e0000b6
:103ff800746900006f6d0000657400006572000050
:104008003a20000000540000656d00007020000098
:1040180069730000200000002e00000020640000ea
:1040280065670000726500006573000020430000aa
:10403800656c000073690000757300000a000000d9
:104048000a3100002e2000006f6e0000652d000070
:10405800736800006f7400000a000000322e000030
:10406800206100007665000072610000676500004d
:104078000a000000332e0000206d0000696e000069
:10408800696d0000756d00000a000000342e000004
:10409800206d000061780000696d0000756d0000fa
:1040a8000a000000352e0000206d00006564000045
:1040b800696100006e0a000000430000686f00009c
:1040c8006f7300006520000061200000707200001e
:1040d8006f63000065730000736900006e6700007d
:1040e800206d00006f640000653a000020000000a9
:1040f8000a0000000a0a0000312e000020740000a7
:10410800776f00000a000000322e000020660000d1
:104118006f750000720a0000003300002e200000b6
:104128006569000067680000740a00000034000038
:104138002e20000073690000787400006565000097
:104148006e0a0000003500002e2000007468000090
:1041580069720000747900002d740000776f000008
:104168000a000000362e0000207300006978000065
:10417800747900002d6600006f750000720a000057
:10418800004800006f770000206d0000616e00009d
:1041980079200000736100006d7000006c650000fc
:1041a800733a00002000000054680000616e0000af
:1041b8006b200000596f0000752e00000a000000f7
:020000040000fa
:1041c800881f780000047800284090000074a00040
:1041d80020449800180078000000e0000400320035
:1041e80091132000810f500045003a00310037003c
:1041f800fb1207003410e3000c003200f81207002d
:10420800a08188000000e000250032002ed0bf0009
:10421800e24f500002003a002e70ef0020003700f5
:1042280010c0b3002ef0b7001d003700721307004e
:104238003210e3000c0032006f13070090818800f1
:104248000000e000160032002ed0bf00e24f500000
:1042580002003a002e70ef001100370020c0b300b2
:104268002ef0b7000e003700771307003010e30078
:104278000b00320074130700808188000000e00002
:10428800070032002ed0bf00e24f500002003a0073
:104298002e70ef000200370030c0b3002ef0b700d8
:1042a800284090000074a10020449800901320003a
:1042b800000c7800284090000028a3000400320079
:1042c80040c0b3002044980030c0b300100037004d
:1042d8000004e00003003d000004a1002044980011
:1042e800020037000004a00020449800a840900075
:1042f8000040eb000108a300bdff320004003700b6
:1043080080c0b30020449800000ceb0030c0b3001c
:104318004f04780000000600881f78000004780029
:10432800284090000074a0002044980018007800ed
:104338000000e0000400320031052000810f500029
:1043480025003a000a003700e0130700551d070052
:104358003004980041049800a00f200001002000bc
:10436800500498006104980030052000000c780083
:10437800284090000028a3000400320040c0b30089
:104388002044980030c0b30017003700580190004f
:10439800e801900038009000c80090004d11070017
:1043a8000000e00004003200284090000004a10052
:1043b8002044980003003700284090000004a00023
:1043c80020449800a84090000040eb000108a3009a
:1043d800ddff32000400370080c0b300204498009d
:1043e800000ceb0030c0b3004f047800000006005a
:1043f80012c3b300824f500005003a000241e900a1
:1044080082cf500050003a003670ef009b00370012
:1044180022c3b300824f500024003a000241e90051
:1044280082cf500003003a0010c0b30036f0b70046
:104438009200370022c3b30082cf500003003a0035
:1044480020c0b30036f0b7008c00370032c3b30089
:1044580082cf500003003a0030c0b30036f0b700f6
:104468008600370042c3b30082cf500003003a00f1
:1044780040c0b30036f0b7008000370052c3b30025
:1044880082cf500003003a0050c0b30036f0b700a6
:104498007a00370062c3b30082cf500051003a005f
:1044a80060c0b30036f0b7007400370032c3b30001
:1044b800824f500024003a0010c3b30080cf500050
:1044c80003003a007040500036f0b7006b00370028
:1044d80020c3b30080cf500003003a007040500062
:1044e80036f0b7006500370030c3b30080cf500006
:1044f80003003a007040500036f0b7005f00370004
:1045080040c3b30080cf500003003a007040500011
:1045180036f0b7005900370050c3b30080cf5000c1
:1045280003003a007040500036f0b70053003700df
:1045380060c3b30080cf500050003a007040500074
:1045480036f0b7004d00370042c3b300824f500029
:1045580024003a0010c3b30080cf500003003a0093
:104568007040400036f0b7004400370020c3b30065
:1045780080cf500003003a007040400036f0b7008a
:104588003e00370030c3b30080cf500003003a002c
:104598007040400036f0b7003800370040c3b30021
:1045a80080cf500003003a007040400036f0b7005a
:1045b8003200370050c3b30080cf500003003a00e8
:1045c8007040400036f0b7002c00370060c3b300dd
:1045d80080cf500029003a007040400036f0b70004
:1045e8002600370052c3b300824f500023003a0020
:1045f80010c3b30080cf500003003a0010c8b300c6
:1046080036f0b7001d00370020c3b30080cf50003c
:1046180003003a0020c8b30036f0b700170037008f
:1046280030c3b30080cf500003003a0030c8b30055
:1046380036f0b7001100370040c3b30080cf5000f8
:1046480003003a0040c8b30036f0b7000b0037004b
:1046580050c3b30080cf500003003a0050c8b300e5
:1046680036f0b7000500370060c3b30080cf5000b4
:1046780002003a0060c8b30036f0b7000000060038
:10468800881f780000047800284090000074a0007b
:1046980020449800180078008000eb0042112000a8
:1046a800820f5000e08f5800ab083e000006010062
:1046b80014013700a8083700a7083700a6083700f4
:1046c800a5083700a4083700a3083700a208370058
:1046d800a1083700a00837009f0837009e08370058
:1046e8009d0837009c0837009b0837009a08370058
:1046f8009908370098083700970837009608370058
:104708009508370094083700930837009208370057
:1047180091083700900837008f0837008e08370057
:104728008d0837008c0837008b0837008a08370057
:104738008908370088083700870837008608370057
:104748008508370084083700830837008208370057
:1047580081083700800837007f0837007e08370057
:104768007d0837007c0837007b0837007a08370057
:104778007908370078083700770837007608370057
:104788007508370074083700730837007208370057
:1047980071083700700837006f0837006e08370057
:1047a8006d0837006c0837006b0837006a08370057
:1047b8006908370068083700670837006608370057
:1047c8006508370064083700630837006208370057
:1047d80061083700600837005f0837005e08370057
:1047e8005d0837005c0837005b0837005a08370057
:1047f8005908370058083700570837005608370057
:104808005508370054083700530837005208370056
:1048180051083700500837004f0837004e08370056
:104828004d0837004c0837004b0837004a08370056
:104838004908370048083700470837004608370056
:104848004508370044083700430837004208370056
:1048580041083700b40037003f0837003e083700ea
:10486800cd0037003c0837003b083700e700370029
:1048780039083700fe0037001801370033013700c8
:104888003508370034083700330837003208370056
:1048980031083700300837002f0837004801370043
:1048a8002d0837002c083700610137002a08370027
:1048b8002908370028083700270837002608370056
:1048c800250837007b01370023083700920137009d
:1048d800ac013700c6013700e0013700fa013700a4
:1048e8001d0837001c083700120237001a08370065
:1048f8001908370018083700170837001608370056
:104908001508370014083700130837001208370055
:104918001108370010083700280237000e08370042
:10492800430237005e0237007602370090023700f4
:10493800ab023700080837000708370006083700b9
:10494800050837000408370003083700c20237009b
:104958000108370000083700db023700fe07370080
:10496800fd073700fc073700fb073700fa07370059
:10497800f9073700f5023700f70737000c0337004f
:1049880026033700400337005a0337007403370003
:10499800f1073700f00737008c033700ee073700c0
:1049a800ed073700ec073700eb073700ea07370059
:1049b800a7033700e8073700e7073700e60737009f
:1049c800e5073700e4073700c2033700da0337008a
:1049d800e1073700f20337000a043700de07370023
:1049e800220437003a043700db0737005204370047
:1049f8006a043700d8073700820437009a04370062
:104a0800d5073700b2043700ca043700d207370089
:104a1800d1073700e1043700f9043700ce07370023
:104a2800cd0737001105370029053700ca073700b9
:104a3800c9073700c8073700400537005805370051
:104a4800c5073700c4073700c3073700c207370058
:104a58007005370088053700bf073700a005370005
:104a6800b8053700bc073700d0053700e805370020
:104a7800b90737000006370018063700b6073700b1
:104a88003006370048063700b3073700600637009e
:104a980078063700b007370090063700a8063700b9
:104aa800ad073700ac073700bf063700d706370019
:104ab800a9073700a8073700ef06370007073700b0
:104ac800a5073700a40737001f0737003707370047
:104ad800a1073700a00737009f0737009e07370058
:104ae8009d0737009c0737009b07370050073700a2
:104af8006807370098073700970737009607370089
:104b0800820737002ed0bf007b073200e14f5000ec
:104b1800a2013a00ae0e0700e08188000008eb0011
:104b280090062000000c7800284090000028a30080
:104b38000400320040c0b3002044980030c0b300e5
:104b4800890737005200200021002000e081800002
:104b580092070700e24f50000400360028409000fa
:104b68000004a1002044980003003700284090006a
:104b78000004a00020449800a84090000040eb00ea
:104b88000108a30078073a00e08180000008eb00e4
:104b9800c0062000000c7800284090000028a300e0
:104ba8000400320040c0b3002044980030c0b30075
:104bb8006d073700030820006203210012417800c6
:104bc80081032100e0818000f0070700e24f5000d8
:104bd80004003600284090000004a10020449800fa
:104be80003003700284090000004a00020449800eb
:104bf800a84090000040eb000108a3005a073a00c3
:104c0800e70a0700f0062000000c78002840900012
:104c18000028a3000400320040c0b30020449800dc
:104c280030c0b30050073700018280000128a3007c
:104c380003003a000004a100204498000200370055
:104c48000004a00020449800284190000040eb0098
:104c58000208a30044073a000120a000018288004e
:104c6800c0c321000008eb0010072000000c7800ea
:104c7800284090000028a3000400320040c0b30080
:104c88002044980030c0b3003707370061ff29007f
:104c9800c0c321002b0d0700e24f5000040036006e
:104ca800284090000004a100204498000300370029
:104cb800284090000004a00020449800a8409000dc
:104cc8000040eb000108a30027073a00c0c32100f9
:104cd8000008eb0020072000000c78002840900016
:104ce8000028a3000400320040c0b300204498000c
:104cf80030c0b3001c073700c28180008001eb0080
:104d0800c0c32100ca0b0700e24f50000400360060
:104d1800284090000004a1002044980003003700b8
:104d2800284090000004a00020449800a84090006b
:104d38000040eb000108a3000b073a00c0c32100a4
:104d48000008eb0030072000000c78002840900095
:104d58000028a3000400320040c0b300204498009b
:104d680030c0b30000073700a1c0b300c0c32100a2
:104d7800ae0a0700e24f50000400360028409000b9
:104d88000004a10020449800030037002840900048
:104d98000004a00020449800a84090000040eb00c8
:104da8000108a300f0063a004050a900080e0700c9
:104db800e08188000008eb00b0072000000c7800b4
:104dc800284090000028a3000400320040c0b3002f
:104dd8002044980030c0b300e306370042002000aa
:104de80031002000e0818000ec060700e24f50000f
:104df80004003600284090000004a10020449800d8
:104e080003003700284090000004a00020449800c8
:104e1800a84090000040eb000108a300d2063a0029
:104e2800e08180000008eb00e0072000000c78001b
:104e3800284090000028a3000400320040c0b300be
:104e48002044980030c0b300c7063700030820008c
:104e5800620321001241780081032100e081800073
:104e68004a070700e24f500004003600284090002f
:104e78000004a10020449800030037002840900057
:104e88000004a00020449800a84090000040eb00d7
:104e98000108a300b4063a00410a0700e2d621003f
:104ea800e1d52100c0818000871707005008200045
:104eb800000c7800284090000028a300040032006d
:104ec80040c0b3002044980030c0b300a6063700a5
:104ed800018280000128a30003003a000004a10019
:104ee80020449800020037000004a00020449800e5
:104ef800284190000040eb000208a3009a063a00ff
:104f08000120a00001828800c0c321000008eb0036
:104f180070082000000c7800284090000028a300aa
:104f28000400320040c0b3002044980030c0b300f1
:104f38008d06370071002a00c0c32100810c0700cc
:104f4800e24f500004003600284090000004a10001
:104f58002044980003003700284090000004a00077
:104f680020449800a84090000040eb000108a300ee
:104f78007d063a00c0c321000008eb00800820002d
:104f8800000c7800284090000028a300040032009c
:104f980040c0b3002044980030c0b3007206370008
:104fa800e1d52100c0c32100660c0700e24f500084
:104fb80004003600284090000004a1002044980016
:104fc80003003700284090000004a0002044980007
:104fd800a84090000040eb000108a30062063a00d8
:104fe800c0c321000008eb0090082000000c7800e6
:104ff800284090000028a3000400320040c0b300fd
:105008002044980030c0b3005706370001012a0039
:10501800c0c321004b0c0700e24f500004003600cb
:10502800284090000004a1002044980003003700a5
:10503800284090000004a00020449800a840900058
:105048000040eb000108a30047063a00c0c3210056
:105058000008eb00a0082000000c78002840900011
:105068000028a3000400320040c0b3002044980088
:1050780030c0b3003c063700e1d62100c0c3210090
:10508800300c0700e24f5000040036002840900022
:105098000004a10020449800030037002840900035
:1050a8000004a00020449800a84090000040eb00b5
:1050b8000108a3002c063a00c0c321000008eb0039
:1050c800b0082000000c7800284090000028a300b9
:1050d8000400320040c0b3002044980030c0b30040
:1050e8002106370021012a00c0c32100150c070042
:1050f800e24f500004003600284090000004a10050
:105108002044980003003700284090000004a000c5
:1051180020449800a84090000040eb000108a3003c
:1051280011063a00c0c321000008eb00e008200087
:10513800000c7800284090000028a30004003200ea
:1051480040c0b3002044980030c0b30006063700c2
:10515800a1c0b300c0c32100b4090700e24f50004a
:1051680004003600284090000004a1002044980064
:1051780003003700284090000004a0002044980055
:10518800a84090000040eb000108a300f6053a0093
:105198004050a9002e70ef00d7053700e24f5000ad
:1051a800c8013a000a0d0700e0818800e08180000c
:1051b8000008eb00a0092000000c780028409000af
:1051c8000028a3000400320040c0b3002044980027
:1051d80030c0b300e4053700520020002100200051
:1051e800e0818000ed050700e24f50000400360022
:1051f800284090000004a1002044980003003700d4
:10520800284090000004a00020449800a840900086
:105218000040eb000108a300d3053a00ec0c07009e
:10522800d08188000008eb00c0092000000c78003d
:10523800284090000028a3000400320040c0b300ba
:105248002044980030c0b300c70537000308200089
:10525800620321001241780081032100d08180007f
:105268004a060700e24f500004003600284090002c
:105278000004a10020449800030037002840900053
:105288000004a00020449800a84090000040eb00d3
:105298000108a300b4053a00d0092000000c7800ea
:1052a800284090000028a3000400320040c0b3004a
:1052b8002044980030c0b300ab053700018280005d
:1052c8000128a30003003a000004a100204498002c
:1052d800020037000004a0002044980028419000f4
:1052e8000040eb000208a3009f053a000120a0003f
:1052f80001828800c0c321000008eb00e0092000fb
:10530800000c7800284090000028a3000400320018
:1053180040c0b3002044980030c0b3009205370065
:1053280061ff2900c0c32100860b0700e24f50002f
:1053380004003600284090000004a1002044980092
:1053480003003700284090000004a0002044980083
:10535800a84090000040eb000108a30082053a0035
:10536800c0c321000008eb00f0092000000c780001
:10537800284090000028a3000400320040c0b30079
:105388002044980030c0b30077053700c281800000
:105398008001eb00c0c32100250a0700e24f50003e
:1053a80004003600284090000004a1002044980022
:1053b80003003700284090000004a0002044980013
:1053c800a84090000040eb000108a30066053a00e1
:1053d800c0c321000008eb00000a2000000c780080
:1053e800284090000028a3000400320040c0b30009
:1053f8002044980030c0b3005b053700a1c0b3005b
:10540800c0c3210009090700e24f5000040036001c
:10541800284090000004a1002044980003003700b1
:10542800284090000004a00020449800a840900064
:105438000040eb000108a3004b053a004050a900ca
:10544800d7080700620c0700e08188000008eb001d
:10545800700a2000000c7800284090000028a30063
:105468000400320040c0b3002044980030c0b300ac
:105478003d0537004200200031002000e081800017
:1054880046050700e24f500004003600284090000f
:105498000004a10020449800030037002840900031
:1054a8000004a00020449800a84090000040eb00b1
:1054b8000108a3002c053a00e08180000008eb00f9
:1054c800a00a2000000c7800284090000028a300c3
:1054d8000400320040c0b3002044980030c0b3003c
:1054e80021053700030820006203210012417800db
:1054f80081032100e0818000a4050700e24f5000ed
:1055080004003600284090000004a10020449800c0
:1055180003003700284090000004a00020449800b1
:10552800a84090000040eb000108a3000e053a00d7
:105538009b080700e2d62100e1d52100c081800048
:10554800e1150700100b2000000c7800284090009f
:105558000028a3000400320040c0b3002044980093
:1055680030c0b30000053700018280000128a30085
:1055780003003a000004a10020449800020037000c
:105588000004a00020449800284190000040eb004f
:105598000208a300f4043a000120a0000182880058
:1055a800c0c321000008eb00300b2000000c78007d
:1055b800284090000028a3000400320040c0b30037
:1055c8002044980030c0b300e704370071002a0077
:1055d800c0c32100db0a0700e24f50000400360078
:1055e800284090000004a1002044980003003700e0
:1055f800284090000004a00020449800a840900093
:105608000040eb000108a300d7043a00c0c3210002
:105618000008eb00400b2000000c780028409000a8
:105628000028a3000400320040c0b30020449800c2
:1056380030c0b300cc043700e1d52100c0c321003d
:10564800c00a0700e24f50000400360028409000ce
:105658000004a1002044980003003700284090006f
:105668000004a00020449800a84090000040eb00ef
:105678000108a300bc043a00c0c321000008eb00e5
:10568800500b2000000c7800284090000028a30050
:105698000400320040c0b3002044980030c0b3007a
:1056a800b104370001012a00c0c32100a50a070080
:1056b800e24f500004003600284090000004a1008a
:1056c8002044980003003700284090000004a00000
:1056d80020449800a84090000040eb000108a30077
:1056e800a1043a00c0c321000008eb00600b2000b1
:1056f800000c7800284090000028a3000400320025
:1057080040c0b3002044980030c0b300960437006e
:10571800e1d62100c0c321008a0a0700e24f5000e9
:1057280004003600284090000004a100204498009e
:1057380003003700284090000004a000204498008f
:10574800a84090000040eb000108a30086043a003e
:10575800c0c321000008eb00700b2000000c78008b
:10576800284090000028a3000400320040c0b30085
:105778002044980030c0b3007b04370021012a0080
:10578800c0c321006f0a0700e24f50000400360032
:10579800284090000004a10020449800030037002e
:1057a800284090000004a00020449800a8409000e1
:1057b8000040eb000108a3006b043a00c0c32100bd
:1057c8000008eb00a00b2000000c78002840900097
:1057d8000028a3000400320040c0b3002044980011
:1057e80030c0b30060043700a1c0b300c0c32100bb
:1057f8000e080700e24f50000400360028409000d1
:105808000004a100204498000300370028409000bd
:105818000004a00020449800a84090000040eb003d
:105828000108a30050043a004050a9001d180700c1
:105838003004980041049800803e200001002000b8
:105848005004980061049800000c2000000c7800b7
:10585800284090000028a3000400320040c0b30094
:105868002044980030c0b3003f043700580190002e
:10587800e801900038009000c8009000150c07005f
:105888000000e00004003200284090000004a1005d
:105898002044980003003700284090000004a0002e
:1058a80020449800a84090000040eb000108a300a5
:1058b8002d043a002ed0bf00e24f50000e043a00eb
:1058c8003afe3700e34f50000b043a00600c20000a
:1058d800000c7800284090000028a3000400320043
:1058e80040c0b3002044980030c0b3001e04370005
:1058f800018280000128a30003003a000004a100ef
:1059080020449800020037000004a00020449800ba
:10591800284190000040eb000208a30012043a005e
:105928000120a00001828800c0c321000008eb000c
:10593800700c2000000c7800284090000028a3007c
:105948000400320040c0b3002044980030c0b300c7
:105958000504370041022a00c0c32100f9090700e5
:10596800e24f500004003600284090000004a100d7
:105978002044980003003700284090000004a0004d
:1059880020449800a84090000040eb000108a300c4
:10599800f5033a004050a900900c2000000c780054
:1059a800284090000028a3000400320040c0b30043
:1059b8002044980030c0b300eb0337000182800018
:1059c8000128a30003003a000004a1002044980025
:1059d800020037000004a0002044980028419000ed
:1059e8000040eb000208a300df033a000120a000fa
:1059f80001828800c0c321000008eb00a00c200031
:105a0800000c7800284090000028a3000400320011
:105a180040c0b3002044980030c0b300d203370020
:105a280021032a00c0c32100c6090700e24f500025
:105a380004003600284090000004a100204498008b
:105a480003003700284090000004a000204498007c
:105a5800a84090000040eb000108a300c2033a00f0
:105a68004050a900c00c2000000c7800284090008d
:105a78000028a3000400320040c0b300204498006e
:105a880030c0b300b8033700018280000128a300aa
:105a980003003a000004a1002044980002003700e7
:105aa8000004a00020449800284190000040eb002a
:105ab8000208a300ac033a000120a000018288007c
:105ac800c0c321000008eb00d00c2000000c7800b7
:105ad800284090000028a3000400320040c0b30012
:105ae8002044980030c0b3009f033700e1032a0028
:105af800c0c3210093090700e24f5000040036009c
:105b0800284090000004a1002044980003003700ba
:105b1800284090000004a00020449800a84090006d
:105b28000040eb000108a3008f033a004050a90091
:105b3800f00c2000000c7800284090000028a300fa
:105b48000400320040c0b3002044980030c0b300c5
:105b580085033700018280000128a30003003a0072
:105b68000004a10020449800020037000004a000af
:105b780020449800284190000040eb000208a30050
:105b880079033a000120a00001828800c0c32100e7
:105b98000008eb00000d2000000c78002840900061
:105ba8000028a3000400320040c0b300204498003d
:105bb80030c0b3006c033700a1042a00c0c3210021
:105bc80060090700e24f50000400360028409000aa
:105bd8000004a100204498000300370028409000ea
:105be8000004a00020449800a84090000040eb006a
:105bf8000108a3005c033a004050a900200d2000d2
:105c0800000c7800284090000028a300040032000f
:105c180040c0b3002044980030c0b300520337009e
:105c2800018280000128a30003003a000004a100bb
:105c380020449800020037000004a0002044980087
:105c4800284190000040eb000208a30046033a00f8
:105c58000120a00001828800c0c321000008eb00d9
:105c6800300d2000000c7800284090000028a30088
:105c78000400320040c0b3002044980030c0b30094
:105c88003903370061052a00c0c321002d09070028
:105c9800e24f500004003600284090000004a100a4
:105ca8002044980003003700284090000004a0001a
:105cb80020449800a84090000040eb000108a30091
:105cc80029033a004050a900500d2000000c78002c
:105cd800284090000028a3000400320040c0b30010
:105ce8002044980030c0b3001f03370001828000b1
:105cf8000128a30003003a000004a10020449800f2
:105d0800020037000004a0002044980028419000b9
:105d18000040eb000208a30013033a000120a00092
:105d280001828800c0c321000008eb00600d20003c
:105d3800000c7800284090000028a30004003200de
:105d480040c0b3002044980030c0b30006033700b9
:105d580011062a00c0c32100fa080700e24f5000cc
:105d680004003600284090000004a1002044980058
:105d780003003700284090000004a0002044980049
:105d8800a84090000040eb000108a300f6023a008a
:105d98004050a900900d2000000c78002840900089
:105da8000028a3000400320040c0b300204498003b
:105db80030c0b300ec023700018280000138a30034
:105dc80003003a000004a1002044980002003700b4
:105dd8000004a00020449800284190000040eb00f7
:105de8000208a300e0023a000130a0000182880006
:105df800e0c421000008eb00a00d2000000c780092
:105e0800284090000028a3000400320040c0b300de
:105e18002044980030c0b300d302370012c0b3004a
:105e280021082100e0c421003a080700e24f500091
:105e380004003600284090000004a1002044980087
:105e480003003700284090000004a0002044980078
:105e5800a84090000040eb000108a300c2023a00ed
:105e68004070a900d00d2000000c78002840900058
:105e78000028a3000400320040c0b300204498006a
:105e880030c0b300b8023700018280000128a300a7
:105e980003003a000004a1002044980002003700e3
:105ea8000004a00020449800284190000040eb0026
:105eb8000208a300ac023a000120a0000182880079
:105ec800c0c321000008eb00e00d2000000c7800a2
:105ed800284090000028a3000400320040c0b3000e
:105ee8002044980030c0b3009f02370021082100e9
:105ef80091407800c0c321004c060700e24f5000d3
:105f080004003600284090000004a10020449800b6
:105f180003003700284090000004a00020449800a7
:105f2800a84090000040eb000108a3008e023a0050
:105f38004050a900200e2000000c78002840900056
:105f48000028a3000400320040c0b3002044980099
:105f580030c0b30084023700018280000128a3000a
:105f680003003a000004a100204498000200370012
:105f78000004a00020449800284190000040eb0055
:105f88000208a30078023a000120a00001828800dc
:105f9800c0c321000008eb00300e2000000c780080
:105fa800284090000028a3000400320040c0b3003d
:105fb8002044980030c0b3006b023700c1072a00a4
:105fc800c0c321005f080700e24f500004003600fc
:105fd800284090000004a1002044980003003700e6
:105fe800284090000004a00020449800a840900099
:105ff8000040eb000108a3005b023a004050a900f2
:1060080010c3b3008250e30001023200800e20006a
:10601800000c7800284090000028a30004003200fb
:1060280040c0b3002044980030c0b3004e0237008f
:10603800018280000128a30003003a000004a100a7
:1060480020449800020037000004a0002044980073
:10605800284190000040eb000208a30042023a00e9
:106068000120a00001828800c0c321000008eb00c5
:10607800900e2000000c7800284090000028a30013
:106088000400320040c0b3002044980030c0b30080
:1060980035023700e1072a00c0c32100290807009c
:1060a800e24f500004003600284090000004a10090
:1060b8002044980003003700284090000004a00006
:1060c80020449800a84090000040eb000108a3007d
:1060d80025023a004050a900b00e2000000c7800bc
:1060e800284090000028a3000400320040c0b300fc
:1060f8002044980030c0b3001b02370001828000a2
:106108000128a30003003a000004a10020449800dd
:10611800020037000004a0002044980028419000a5
:106128000040eb000208a3000f023a000120a00083
:1061380001828800c0c321000008eb00c00e2000c7
:10614800000c7800284090000028a30004003200ca
:1061580040c0b3002044980030c0b30002023700aa
:1061680081082a00c0c32100f6070700e24f50004b
:1061780004003600284090000004a1002044980044
:1061880003003700284090000004a0002044980035
:10619800a84090000040eb000108a300f2013a007b
:1061a8004050a900e00e2000000c78002840900024
:1061b8000028a3000400320040c0b3002044980027
:1061c80030c0b300e8013700018280000128a30035
:1061d80003003a000004a1002044980002003700a0
:1061e8000004a00020449800284190000040eb00e3
:1061f8000208a300dc013a000120a0000182880007
:10620800c0c321000008eb00f00e2000000c78004d
:10621800284090000028a3000400320040c0b300ca
:106228002044980030c0b300cf01370011092a007c
:10623800c0c32100c3070700e24f50000400360026
:10624800284090000004a100204498000300370073
:10625800284090000004a00020449800a840900026
:106268000040eb000108a300bf013a004050a9001c
:10627800100f2000000c7800284090000028a30090
:106288000400320040c0b3002044980030c0b3007e
:10629800b5013700018280000128a30003003a00fd
:1062a8000004a10020449800020037000004a00068
:1062b80020449800284190000040eb000208a30009
:1062c800a9013a000120a00001828800c0c3210072
:1062d8000008eb00200f2000000c780028409000f8
:1062e8000028a3000400320040c0b30020449800f6
:1062f80030c0b3009c013700b1092a00c0c3210097
:1063080090070700e24f5000040036002840900034
:106318000004a100204498000300370028409000a2
:106328000004a00020449800a84090000040eb0022
:106338000108a3008c013a004050a900400f20003a
:10634800000c7800284090000028a30004003200c8
:1063580040c0b3002044980030c0b3008201370029
:10636800018280000128a30003003a000004a10074
:1063780020449800020037000004a0002044980040
:10638800284190000040eb000208a30076013a0083
:106398000120a00001828800c0c321000008eb0092
:1063a800500f2000000c7800284090000028a3001f
:1063b8000400320040c0b3002044980030c0b3004d
:1063c80069013700710a2a00c0c321005d07070070
:1063d800e24f500004003600284090000004a1005d
:1063e8002044980003003700284090000004a000d3
:1063f80020449800a84090000040eb000108a3004a
:1064080059013a004050a900700f2000000c780094
:10641800284090000028a3000400320040c0b300c8
:106428002044980030c0b3004f013700018280003b
:106438000128a30003003a000004a10020449800aa
:10644800020037000004a000204498002841900072
:106458000040eb000208a30043013a000120a0001d
:1064680001828800c0c321000008eb00800f2000d3
:10647800000c7800284090000028a3000400320097
:1064880040c0b3002044980030c0b3003601370044
:10649800610b2a00c0c321002a070700e24f500001
:1064a80004003600284090000004a1002044980011
:1064b80003003700284090000004a0002044980002
:1064c800a84090000040eb000108a30026013a0014
:1064d8004050a900a00f2000000c78002840900030
:1064e8000028a3000400320040c0b30020449800f4
:1064f80030c0b3001c013700018280000128a300ce
:1065080003003a000004a10020449800020037006c
:106518000004a00020449800284190000040eb00af
:106528000208a30010013a000120a000018288009f
:10653800c0c321000008eb00b00f2000000c780059
:10654800284090000028a3000400320040c0b30097
:106558002044980030c0b30003013700510c2a00d2
:10656800c0c32100f7060700e24f500004003600c0
:10657800284090000004a100204498000300370040
:10658800284090000004a00020449800a8409000f3
:106598000040eb000108a300f3003a004050a900b6
:1065a800e00f2000000c7800284090000028a3008d
:1065b8000400320040c0b3002044980030c0b3004b
:1065c800e9003700018280000138a30003003a0087
:1065d8000004a10020449800020037000004a00035
:1065e80020449800284190000040eb000208a300d6
:1065f800dd003a000130a00001828800e0c42100db
:106608000008eb00f00f2000000c780028409000f4
:106618000028a3000400320040c0b30020449800c2
:1066280030c0b300d000370012c0b30031082100d9
:10663800e0c4210037060700e24f5000040036008e
:10664800284090000004a10020449800030037006f
:10665800284090000004a00020449800a840900022
:106668000040eb000108a300bf003a004070a900f9
:1066780020102000000c7800284090000028a3007b
:106688000400320040c0b3002044980030c0b3007a
:10669800b5003700018280000128a30003003a00fa
:1066a8000004a10020449800020037000004a00064
:1066b80020449800284190000040eb000208a30005
:1066c800a9003a000120a00001828800c0c321006f
:1066d8000008eb0030102000000c780028409000e3
:1066e8000028a3000400320040c0b30020449800f2
:1066f80030c0b3009c003700310821009140780079
:10670800c0c3210049040700e24f500004003600ce
:10671800284090000004a10020449800030037009e
:10672800284090000004a00020449800a840900051
:106738000040eb000108a3008b003a004050a9007c
:1067480060102000000c7800284090000028a3006a
:106758000400320040c0b3002044980030c0b300a9
:1067680081003700018280000128a30003003a005d
:106778000004a10020449800020037000004a00093
:1067880020449800284190000040eb000208a30034
:1067980075003a000120a00001828800c0c32100d2
:1067a8000008eb0070102000000c780028409000d2
:1067b8000028a3000400320040c0b3002044980021
:1067c80030c0b30068003700c1072a00c0c32100e9
:1067d8005c060700e24f5000040036002840900095
:1067e8000004a100204498000300370028409000ce
:1067f8000004a00020449800a84090000040eb004e
:106808000108a30058003a004050a90002003700d0
:1068180000c3b30083f0b70031082100914078002d
:1068280082d0bf00f2f60700f0102000000c7800bc
:10683800284090000028a3000400320040c0b300a4
:106848002044980030c0b300470037000182800020
:106858000128a30003003a000004a1002044980086
:10686800020037000004a00020449800284190004e
:106878000040eb000208a3003b003a000120a00002
:1068880001828800c0c321000008eb00001120002d
:10689800000c7800284090000028a3000400320073
:1068a80040c0b3002044980030c0b3002e00370029
:1068b800810d2a00c0c3210022060700e24f5000c4
:1068c80004003600284090000004a10020449800ed
:1068d80003003700284090000004a00020449800de
:1068e800a84090000040eb000108a3001e003a00f9
:1068f8004050a9002e70ef00284090000074a100bd
:106908002044980040112000000c78002840900096
:106918000028a3000400320040c0b30020449800bf
:1069280030c0b300100037000004e00003003d0051
:106938000004a10020449800020037000004a000d1
:1069480020449800a84090000040eb000108a300f4
:106958006cf832000400370080c0b300204498006f
:10696800000ceb0030c0b3004f04780000000600b4
:106978006a0a07000019220063060700400e220079
:1069880061060700403422005f0607000000060089
:10699800100078001100500000000600881f7800e1
:1069a8000004780081017800284090000074a0005d
:1069b80020449800180278000400e0000400320027
:1069c80011032000810f52001a003a00020037001c
:1069d80011032000010c78000028a30004003200f5
:1069e80040c0b3002044980030c0b3001500370001
:1069f800018280000168a30003003a000004a1009e
:106a080020449800020037000004a00020449800a9
:106a1800284290000040eb000408a30009003a0057
:106a28000160a000018288008200780003007800dd
:106a38005c10070080c0b30020449800000ceb00f5
:106a480030c0b3004f04780000000600889fbe00e5
:106a58000004be00284090000074a0002044980064
:106a6800180078000000e000040032005104200003
:106a7800810f50001b003a00030037008710070001
:106a880050042000000c7800284090000028a30043
:106a98000400320040c0b3002044980030c0b30066
:106aa80014003700751007000000e00004003a00e9
:106ab800284090000004a1002044980003003700fb
:106ac800284090000004a00020449800a8409000ae
:106ad8000040eb000108a30006003a00721007000e
:106ae800800c780080c0b30020449800000ceb00b4
:106af80030c0b3004f04be0000000600889fbe00ef
:106b0800800478000184fb00c34c2300220020008d
:106b18008800780009007800bff107000804d10058
:106b28000800e90000004000008044000804440018
:106b38008884440010007800190040000000d1004b
:106b48004f04be00000006008001eb000104e000d5
:106b58000c003200000178000280e8008140e90062
:106b68008180fb008180400001004000b200780075
:106b7800818f51000100310081017800800f5100a0
:106b8800faff3a000300780000000600889fbe0064
:106b98008a9fbe00000478000105780082447800ce
:106ba800284090000074a000204498001800780045
:106bb800c10a2000810f50007f00320009003e000a
:106bc800f0805000810f500026003200e88040001d
:106bd800810f50004e0032000000e000100032002b
:106be800e8023700c10b2000810f5000c8003200b6
:106bf80004003e00e8805000810f5000e1023a0096
:106c080098003700410c2000810f5000eb00320043
:106c1800ee804000810f5000da023a00120137007e
:106c28007070ef006c30ef006e30ef0000cfb300f3
:106c380000c0610072f0b700efc1610083407800c6
:106c480010072100014878006f806400e10f5000b0
:106c580029003a002400370010100700c00920005e
:106c6800000c7800284090000028a300040032009f
:106c780040c0b3002044980030c0b300c5023700bc
:106c8800fe0f07000000e00004003a0028409000d2
:106c98000004a10020449800030037002840900019
:106ca8000004a00020449800a84090000040eb0099
:106cb8000108a300b7023a000b0721009b457800a2
:106cc800f90f07008b80fb008180400062c721001c
:106cd80081004100800878008b45e8008b417800ee
:106ce800020721000349780070d0bf00e14f50002f
:106cf800d6003e00d8ff3700e20f500028003a00c7
:106d080023003700e50f0700400a2000000c780038
:106d1800284090000028a3000400320040c0b300bf
:106d28002044980030c0b3009a023700d30f070000
:106d38000000e00004003a00284090000004a10090
:106d48002044980003003700284090000004a00069
:106d580020449800a84090000040eb000108a300e0
:106d68008c023a000b0721009b457800ce0f0700e4
:106d78008b80fb008180400062c7210081004100b8
:106d8800800878008b45e8000b40780070f0b70069
:106d980070d0bf00e34f5000ac003e00d9ff370071
:106da800e30f500029003a0024003700bb0f07000a
:106db800c00a2000000c7800284090000028a3009a
:106dc8000400320040c0b3002044980030c0b30033
:106dd80070023700a90f07000000e00004003a0025
:106de800284090000004a1002044980003003700c8
:106df800284090000004a00020449800a84090007b
:106e08000040eb000108a30062023a000b072100d2
:106e18009b457800a40f07008b80fb008180400011
:106e280062c7210081004100800878008b45e80096
:106e38000b417800010721008248780070d0bf001c
:106e4800e74f500081003e00d8ff3700e40f5000a4
:106e580029003a0024003700900f0700400b20005b
:106e6800000c7800284090000028a300040032009d
:106e780040c0b3002044980030c0b300450237003a
:106e88007e0f07000000e00004003a002840900050
:106e98000004a10020449800030037002840900017
:106ea8000004a00020449800a84090000040eb0097
:106eb8000108a30037023a000b0721009b45780020
:106ec800790f07008b80fb008180400062c721009a
:106ed80081004100800878008b45e8000b4278006b
:106ee800030721008449780070d0bf00ef4f50009d
:106ef80056003e00d8ff3700e50f500029003a0041
:106f080024003700650f0700c00b2000000c780034
:106f1800284090000028a3000400320040c0b300bd
:106f28002044980030c0b3001a023700530f0700fe
:106f38000000e00004003a00284090000004a1008e
:106f48002044980003003700284090000004a00067
:106f580020449800a84090000040eb000108a300de
:106f68000c023a000b0721009b4578004e0f0700e2
:106f78008b80fb008180400062c7210081004100b6
:106f8800800878008b45e8008b40780000072100d6
:106f98000148780070d0bf00ff4f50002b003e0022
:106fa800d8ff3700e60f500028003a0024003700c9
:106fb8003a0f0700400c2000000c78002840900091
:106fc8000028a3000400320040c0b3002044980009
:106fd80030c0b300ef013700280f07000000e000c1
:106fe80004003a00284090000004a10020449800c2
:106ff80003003700284090000004a00020449800b7
:10700800a84090000040eb000108a300e1013a000d
:107018000b0721009b457800230f07008b80fb009e
:107028008180400062c7210081004100800878000b
:107038008b45e8008b41780002072100034978005e
:10704800f0c3b3007050e300d9ff3600000deb0029
:107058007070ef000904e0001b003a000f0f0700f2
:10706800200d2000000c7800284090000028a30084
:107078000400320040c0b3002044980030c0b30080
:10708800c4013700fd0e07000000e00004003a00cc
:10709800284090000004a100204498000300370015
:1070a800284090000004a00020449800a8409000c8
:1070b8000040eb000108a300b6013a00fa0e0700f1
:1070c800000d780069013700e1cf540011003a0043
:1070d8006083800071838000b2e38000000041007b
:1070e800e0804800c2e3800000004100e0804800e2
:1070f80023c0b30004072100034a78008100d100af
:107108000080d3006083880071838800000d7800b8
:1071180056013700e2cf540019003a00608380001e
:1071280071838000b2e3800000004100e0804800e5
:10713800c2e3800000004100e0804800d2e3800004
:1071480000004100e0804800e2e3800000004100c8
:10715800e080480043c0b30004072100034a7800d8
:107168004e0add004200de0000007200c208de00a8
:107178006083880071838800000d78003b01370028
:10718800e3cf540013003a006283800073838000c9
:1071980040c7210070024000d00078000281400002
:1071a800e0814900840f5000fbff3a0080c0b30023
:1071b80070f0b7004d18dd004311de0002017000c9
:1071c800c319de006283880073838800020d78008b
:1071d80026013700e4cf540014003a00628380008f
:1071e8007383800040c7210004022000000242008f
:1071f800d000780002814000e0814900840f5000ef
:10720800fbff3a0000c1b30070f0b700cc18dd00f6
:107218004411de0002817000c419de006283880018
:1072280073838800020d780010013700e5cf540001
:1072380014003a00628380007383800040c72100f5
:107248000404200000024200d000780002814000bf
:10725800e0814900840f5000fbff3a0000c2b300f0
:1072680070f0b7004b1add004511de000201720014
:10727800c519de006283880073838800020d7800d8
:10728800fa003700e6cf540014003a006283800009
:107298007383800040c721000408200000024200d8
:1072a800d000780002814000e0814900840f50003e
:1072b800fbff3a0000c4b30070f0b7004a18dd00c5
:1072c8004611de0002017000c619de0062838800e4
:1072d80073838800020d7800e400370010c2b30001
:1072e80080cf540013003a00008deb000107210005
:1072f800914078000040eb0062c721000100370090
:10730800804078000080fb00000040000000410041
:10731800100078009a0f500001003100000d78002d
:107328000140e800e14f5000f5ff360070f0b7006b
:10733800ce00370020c2b30080cf540013003a00bb
:10734800008deb0001072100914078000040eb0020
:1073580062c7210001003700804078000080fb00f0
:107368000000400000004100100078009a0f500013
:1073780001003100000d78000140e800e34f5000a3
:10738800f5ff360070f0b700b800370030c2b30020
:1073980080cf540013003a00008deb000107210054
:1073a800914078000040eb0062c7210001003700df
:1073b800804078000080fb00000040000000410091
:1073c800100078009a0f500001003100000d78007d
:1073d8000140e800e74f5000f5ff360070f0b700b5
:1073e800a200370040c2b30080cf540013003a0017
:1073f800008deb0001072100914078000040eb0070
:1074080062c7210001003700804078000080fb003f
:107418000000400000004100100078009a0f500062
:1074280001003100000d78000140e800ef4f5000e6
:10743800f5ff360070f0b7008c00370050c2b3007b
:1074480080cf540013003a00008deb0001072100a3
:10745800914078000040eb0062c72100010037002e
:10746800804078000080fb000000400000004100e0
:10747800100078009a0f500001003100000d7800cc
:107488000140e800ff4f5000f5ff360070f0b700ec
:107498007600370060c2b30080cf540014003a0071
:1074a800008deb0001072100914078000040eb00bf
:1074b80063c72100f2c3b3000100370080407800a1
:1074c8000080fb00000040000080410010007800b0
:1074d8009a0f500001003100000d78000140e800cb
:1074e800824f5000f5ff360070f0b7005f0037009c
:1074f80010c4b30080cf540005003a0021c0b30087
:1075080060c7210090fd0700000d78005700370084
:1075180020c4b30080cf540005003a0041c0b30036
:1075280060c7210088fd0700000d78004f00370074
:1075380030c4b30080cf540005003a0081c0b300c6
:1075480060c7210080fd0700000d78004700370064
:1075580040c4b30080cf540005003a0001c1b30015
:1075680060c7210078fd0700000d78003f00370054
:1075780050c4b30080cf540005003a0001c2b300e4
:1075880060c7210070fd0700000d78003700370044
:1075980060c4b30080cf540005003a0001c4b300b2
:1075a80060c7210068fd0700000d78002f00370034
:1075b80010c8b30080cf540005003a0021c0b300c2
:1075c80060c721004dfd0700000d78002700370037
:1075d80020c8b30080cf540005003a0041c0b30072
:1075e80060c7210045fd0700000d78001f00370027
:1075f80030c8b30080cf540005003a0081c0b30002
:1076080060c721003dfd0700000d78001700370016
:1076180040c8b30080cf540005003a0001c1b30050
:1076280060c7210035fd0700000d78000f00370006
:1076380050c8b30080cf540005003a0001c2b3001f
:1076480060c721002dfd0700000d780007003700f6
:1076580060c8b30080cf540004003a0001c4b300ee
:1076680060c7210025fd0700000d780072d0bf001b
:107678003a003b0011072100914078000104e00026
:1076880014003200e1cf500015003200e2cf500064
:1076980016003200e3cf500017003200e4cf50004c
:1076a80018003200e5cf500019003200e6cf500034
:1076b8001a003200e7cf50001b0032006011b800fa
:1076c800e8cf50001a003a0002352c0003002000d1
:1076d8001700370002712200030020001400370051
:1076e80002802200030020001100370002e224007b
:1076f800030020000e0037000200250003002000d0
:107708000b00370002532700030020000800370051
:10771800820e2800030020000500370002c429005b
:10772800030020000200370002002a0003002000a6
:107738001a0078008000eb00809ab9000010b800a9
:10774800810042004409dd004c00de0000007100a9
:10775800cc08de00000d78000a0037000068a3009e
:10776800080032009a007800400620000008b8009f
:10777800c409dd004c00de0000807100cc08de008a
:10778800000d780080c0b30020449800000ceb0086
:1077980030c0b3004f05be004f04be000000060015
:1077a800460d070040d0a900100020000000060088
:1077b80000002100c1bb2100010878008000eb0017
:1077c800110098002100980002042000320098005f
:1077d80080002100c3bf2100030878001100980031
:1077e8002100980032009800840f0700000006006e
:1077f8000080fb004400de00e94f50000200360024
:107808007043b000010037000043b00000000600dc
:107818006f406000e94f5000020036007043b0002e
:10782800010037000043b00000000600881f780000
:1078380000047800284090000074a00020449800bc
:10784800180178000200e000040032003105200031
:10785800810f510027003a000c0037008141780061
:10786800b202210003497800118080008100e800fd
:107878006181880002042000828f500001003a00d4
:107888002c30ef0031052000010c78000028a300ff
:107898000400320040c0b3002044980030c0b30058
:1078a800180037006181800022808000810f51001c
:1078b800030032000004a1002044980002003700b1
:1078c8000004a00020449800284190000040eb00ec
:1078d8000208a3000b003a000000210010814000bc
:1078e800b302210093417800034978001100980001
:1078f800190f070080c0b30020449800000ceb006b
:1079080030c0b3004f04780000000600889fbe0016
:107918000004780081447800284090000074a0009a
:1079280020449800180078000000e00004003200ad
:10793800a1062000810f50003f003a0019003700cf
:1079480001c3b30000c721000148780081c7b30014
:107958000000e8000148780009407800a4ff07000b
:1079680021c721008048780009407800a8ff070057
:1079780031c72100804878000100e8000048eb008a
